:100000000C947F110C94A7110C94A7110C94A711B8
:100010000C94A7110C94A7110C94A7110C94A71180
:100020000C94A7110C94A7110C94A7110C94861F83
:100030000C94A7110C94A7110C94A7110C94A71160
:100040000C94A7110C94A7110C94A7110C94A71150
:100050000C94A711FFE0FFD1AFFF32FFD0FFFEFFEE
:10006000E0FFD1AEFFD0FFFEFFE0FFD11000FFFEAA
:10007000FFD0FFE0FFC1FFD1AED580A83FD3004045
:100080008D142000A1C8DA1281CFD9F1DB402EA453
:10009000A6AFFFD0FFFE000D15FEFA0901DE042019
:1000A00020FFFD0CFC0AFD00000009000102090907
:1000B000090300C0C0C0C0C08000C0C0050404095E
:1000C0000206D8D8D848070B0B0901FF282828FEBC
:1000D0002828FE28282828060C0C0901FF30307C2F
:1000E000CCC0F03C0CCCF83030070A0A09010060A3
:1000F00090926C10609824241807080809010038B1
:100100006060307ACCCC76020404090305C0C0C01C
:1001100040040B0B0902FE306060C0C0C0C0C0606C
:100120006030040B0B0902FEC060603030303030AC
:100130006060C005050509020420A8F870D807070B
:1001400007090101101010FE101010030404090229
:10015000FE6060C080060101090104FC0202020980
:100160000300C0C0070C0C0900FE06060C0C181892
:1001700030306060C0C0070A0A090100386CC6C68A
:10018000C6C6C6C66C38060A0A09020030F030300E
:100190003030303030FC060A0A09010078CCCC0C33
:1001A0000C183060C0FC060A0A09010078CC0C0C5F
:1001B000380C0C0CCC78070A0A0901000C1C3C2CEA
:1001C0004CCC8CFE0C1E060A0A090100FCC0C0F8CB
:1001D000CC0C0C0CCC78060A0A0901003C60C0D893
:1001E000ECCCCCCCCC78060A0A090100FC8C0C18AB
:1001F000181818303030060A0A09010078CCCCCC27
:1002000078CCCCCCCC78060A0A09010078CCCCCCCE
:10021000CCCC7C0C18F0020707090300C0C000001A
:1002200000C0C00309090902FE60600000006060B0
:10023000C080080707090001071C70C0701C070771
:100240000404090102FE0000FE080707090101E09D
:10025000380E030E38E0060909090100F8CC8C0CB1
:10026000383000303007090909010078C49CB4A473
:10027000B49EC0780909120900007C001C003600F9
:100280003600220063007F006300F7800809090937
:100290000000FE6363637E636363FE07090909016F
:1002A000003A66C6C0C0C0C0663C08090909000023
:1002B000FC66636363636366FC080909090000FF69
:1002C00063636878686363FF080909090000FF63D6
:1002D000636878686060F80909120900003D0067EA
:1002E00000C300C000C000CF80C30063003F00090E
:1002F0000912090000F7806300630063007F006358
:100300000063006300F780060909090100FC303032
:100310003030303030FC0909120900001F8006001F
:10032000060006000600C600C600C6007C000909DB
:1003300012090000F70066006C0078007C0066007F
:1003400066006300F380080909090000F860606036
:1003500060636363FF090912090000E380630077AB
:100360000077006B006B0063006300F780090912DF
:10037000090000E7806300730073006B006B006787
:10038000006700F3000809090900003C66C3C3C305
:10039000C3C3663C080909090000FE636363667C09
:1003A0006060F8080B0B0900FE3C66C3C3C3C3C3FF
:1003B000663C196E090912090000FE006300630023
:1003C000630066007C0066006300F380070909098A
:1003D00001007ACEC6E07C0EC6E6BC080909090019
:1003E00000FFDBDB18181818183C09091209000077
:1003F000F7806300630063006300630063006300D1
:100400003E00090912090000F780630063006300E1
:100410003600360036001C001C00090912090000D5
:10042000F78063006B006B006B0077007700630060
:100430006300080909090000E766663C183C666627
:10044000E70A091209FF00F3C06180330033001E80
:10045000000C000C000C003F00070909090100FE18
:10046000C6CC18183066C6FE040B0B0902FEF0C09D
:10047000C0C0C0C0C0C0C0C0F0070C0C0901FEC0A5
:10048000C06060303018180C0C0606040B0B090213
:10049000FEF0303030303030303030F005040409B8
:1004A00002052070D8880901020900FEFF800302BE
:1004B00002090207C0600807070900007C06067EE3
:1004C000C6CE77080A0A090000E060606E736363B5
:1004D0006373EE0807070900003D67C3C0C0633EB1
:1004E000080A0A0900000E060676CEC6C6C6CE77F2
:1004F0000807070900003C66C3FFC0673E070A0AF9
:100500000901001E3030FC3030303030FC080A0A5F
:100510000900FD77CEC6C6C6CE7606067C090A144B
:10052000090000E000600060006E0073006300637B
:100530000063006300F780060A0A090100303000FA
:10054000F03030303030FC050D0D0901FD18180079
:10055000781818181818181818F0080A0A0900004E
:10056000E06060676C78786C66E7060A0A0901004B
:10057000F03030303030303030FC09070E090000E8
:10058000DF006D806D806D806D806D80ED8009076E
:100590000E090000EE007300630063006300630057
:1005A000F7800807070900003C66C3C3C3663C0820
:1005B0000A0A0900FDEE73636363736E6060F008FE
:1005C0000A0A0900FD77CEC6C6C6CE7606060F0714
:1005D0000707090100EE7060606060FC070707090B
:1005E00001007EC6C07C06C6FC070909090100603F
:1005F00060FC60606060663C09070E090000E7006F
:10060000630063006300630067003B8009070E0915
:100610000000F78063006300360036001C001C00F9
:100620000A070E09FF00E1C06D806D806D802D000E
:1006300033003300080707090000E7663C183C66F2
:10064000E7090A140900FDE3806300630036003601
:10065000001C001C00180018007C00060707090198
:1006600000FC8C183060C4FC040B0B0902FE3060E7
:10067000606060C06060606030020B0B0903FEC008
:10068000C0C0C0C0C0C0C0C0C0C0040B0B0902FEC7
:10069000C0606060603060606060C0060303090194
:1006A0000364FC98FFFFFFFFFFFFFFFFFFFFFFFF5B
:1006B000FFFFFFFFFFFFFFFFFFFFFFFFFFFFFFFF4A
:1006C000FFFFFFFFFF000000090001020909090305
:1006D000FEC0C00080C0C0C0C0C0060A0A0901FF39
:1006E00030307CCCC0C0CC7830300709090901001B
:1006F0003C666060F8606066FC070606090101C69A
:100700007CC6C67CC60A0912090000F3C0618033AA
:10071000001E003F000C003F000C003F00020B0BCE
:100720000903FEC0C0C0C0C000C0C0C0C0C0080B2C
:100730000B0900FF3E6260F08CE3390F06467C0433
:10074000020209020890900908100900011C0063C8
:1007500000CD80D180D180CD8063001C00050707CB
:10076000090202701878D86800F807050509010128
:10077000366CD86C36070303090102FE020206013B
:1007800001090104FC0908100900013E006300D9B9
:1007900080D580D980D58063003E00040101090224
:1007A00008F0040404090205609090600707070937
:1007B00001011010FE101000FE050606090204706B
:1007C00098183060F80506060902047098301898E9
:1007D0007003020209030760C0090A140900FDE75B
:1007E00000630063006300630067007B806000605B
:1007F000006000070B0B0901FF7ED49494D474149D
:100800001414147E020202090303C0C00304040985
:1008100002FD406020E004060609030460E0606019
:1008200060F005070709020270D888D87000F80741
:100830000505090101D86C366CD8090A14090000B5
:100840006000E080610062006500FB0017002B0083
:100850004F808300090A140900006000E0806100F5
:1008600062006700FD801180230046000F800A0AA5
:100870001409FF0070009840308019009A8075803C
:100880000B80158027C041800609090901FE303020
:10089000003070C0C4CC7C090C1809000018000C92
:1008A0000000007C001C0036003600220063007F40
:1008B000006300F780090C180900000C0018000004
:1008C000007C001C0036003600220063007F0063BD
:1008D00000F780090C180900001C00360000007C9D
:1008E000001C0036003600220063007F006300F722
:1008F00080090C180900001A002C0000007C001C64
:100900000036003600220063007F006300F7800994
:100910000C180900002400240000007C001C003694
:10092000003600220063007F006300F780090C1886
:100930000900001800240018007E001C0036003654
:1009400000220063007F006300F78009091209009C
:10095000003F801C801C003D002F006D007C004C7F
:1009600080DF80070D0D0901FC3A6EC6C0C0C0C013
:10097000663C10180838080C0C090000180C00FF21
:1009800063636878686363FF080C0C0900000C1847
:1009900000FF63636878686363FF080C0C0900005C
:1009A0001C3600FF63636878686363FF080C0C09FA
:1009B0000000242400FF63636878686363FF060C0B
:1009C0000C090100603000FC30303030303030FC39
:1009D000060C0C090100183000FC3030303030308B
:1009E00030FC060C0C090100386C00FC3030303053
:1009F000303030FC060C0C090100484800FC303057
:100A00003030303030FC080909090000FC666363AF
:100A1000F3636366FC090C180900001A002C00003F
:100A200000E7806300730073006B006B0067006772
:100A300000F300080C0C0900003018003C66C3C32A
:100A4000C3C3C3663C080C0C0900000C18003C66CC
:100A5000C3C3C3C3C3663C080C0C090000386C0058
:100A60003C66C3C3C3C3C3663C080C0C0900003416
:100A700058003C66C3C3C3C3C3663C080C0C0900E2
:100A8000002424003C66C3C3C3C3C3663C060707F7
:100A900009010184CC783078CC84080A0A09000066
:100AA000013E66CBCBD3D3E366BC090C180900002A
:100AB00018000C000000F78063006300630063000F
:100AC0006300630063003E00090C180900000C007D
:100AD00018000000F7806300630063006300630098
:100AE000630063003E00090C180900001C0036007A
:100AF0000000F7806300630063006300630063002D
:100B000063003E00090C18090000120012000000EA
:100B1000F7806300630063006300630063006300A9
:100B20003E000A0C1809FF0006000C000000F3C08C
:100B30006180330033001E000C000C000C003F00ED
:100B4000080909090000F0607E6363667C60F008B4
:100B500009090900003C66666C6663636BEE080A6F
:100B60000A0900003018007C06067EC6CE77080A07
:100B70000A0900000C18007C06067EC6CE77080A1B
:100B80000A090000386C007C06067EC6CE77080A8B
:100B90000A0900003458007C06067EC6CE77080A93
:100BA0000A0900002424007C06067EC6CE77080AC7
:100BB0000A0900001824187C06067EC6CE770907AD
:100BC0000E09000077001D8008807F80C800CD805E
:100BD0007700080B0B0900FC3D67C3C0C0633E10E3
:100BE000180838080A0A0900003018003C66C3FFDC
:100BF000C0673E080A0A0900000C18003C66C3FFE3
:100C0000C0673E080A0A0900001C36003C66C3FFA4
:100C1000C0673E080A0A0900002424003C66C3FF9E
:100C2000C0673E060A0A090100603000F03030302B
:100C30003030FC060A0A090100183000F03030306C
:100C40003030FC060A0A09010070D800F03030305C
:100C50003030FC060A0A090100484800F030303004
:100C60003030FC080A0A090000EC38CC3E66C3C3E9
:100C7000C3663C090A140900001A002C000000EEAB
:100C80000073006300630063006300F780080A0AD2
:100C90000900003018003C66C3C3C3663C080A0A5A
:100CA0000900000C18003C66C3C3C3663C080A0A6E
:100CB0000900001C36003C66C3C3C3663C080A0A30
:100CC0000900003458003C66C3C3C3663C080A0AE6
:100CD0000900002424003C66C3C3C3663C08070720
:100CE000090001181800FF0018180807070900007C
:100CF0003D66CFDBF366BC090A1409000018000C3E
:100D0000000000E700630063006300630067003BCE
:100D100080090A140900000C0018000000E70063B5
:100D20000063006300630067003B80090A14090048
:100D3000001C0036000000E70063006300630063EE
:100D40000067003B80090A14090000240024000009
:100D500000E700630063006300630067003B8009F5
:100D60000D1A0900FD06000C000000E3806300631B
:100D700000360036001C001C00180018007C00081B
:100D80000C0C0900FDE0606E73636363736E60605A
:100D9000F0090D1A0900FD120012000000E3806343
:100DA000006300360036001C001C00180018007C90
:100DB00000000C10FDFC060192030D20FFFE09FE51
:100DC00007FE000000060001020606060100C0C082
:100DD000C0C000C0030303060103A0A0A0050808CB
:100DE0000600FF5050F85050F85050050909060011
:100DF000FF2078C8F07818D8F02005070706000013
:100E0000E0A8F02078A83806060606FF0038603013
:100E10007CD87C0103030602038080800308080657
:100E200001FF2040C0C0C0C040200308080601FFE9
:100E3000804060606060408004040406000320F08D
:100E400060900505050600012020F820200303031B
:100E50000601FE604080050101060003F802010161
:100E6000060100C00408080601FF101020204040C1
:100E7000808005070706000070D8D8D8D8D870063B
:100E8000070706000030F030303030FC0507070659
:100E9000000070D8183060D8F80507070600007009
:100EA000D8187018D870060707060000183858D8E8
:100EB000FC1818050707060000F8C0F0D81898F0CD
:100EC00005070706000070D8C0F0D8D870050707DE
:100ED000060000F8D81830306060050707060000EB
:100EE00070D8D870D8D87005070706000070D8D819
:100EF0007818D870020404060100C00000C0030680
:100F0000060600FE60000060408004050506000142
:100F10003060C06030040303060002F000F00405F6
:100F200005060101C0603060C005060606000070BD
:100F300098306000600608080600FF70C898A8A8EE
:100F40009CC07007060606FF007838287C6CEE0609
:100F5000060606FF00F86C786C6CF80506060600BD
:100F60000078D8C0C0D87006060606FF00F86C6C82
:100F70006C6CF806060606FF00FC6078606CFC06E8
:100F8000060606FF00FC60786060F00506060600B5
:100F90000070D8C0F8D87807060606FF00EE6C7C13
:100FA0006C6CEE040606060000F060606060F006FF
:100FB000060606FF003C1818D8D87007060606FF7C
:100FC00000EC6870786CF606060606FF00F06060BC
:100FD000606CFC06060606FF00C46C6C7C54D407EB
:100FE000060606FF00EE74746C6CE4050606060047
:100FF0000070D8D8D8D87006060606FF00F86C6CCA
:101000007860F00507070600FF70D8D8D8D87018A8
:1010100007060606FF00F86C6C786CF605060606F7
:10102000000078C8F03898F006060606FF00FCB409
:101030003030307807060606FF00EE6C6C6C6C38BA
:1010400007060606FF00EE6C28383810070606066D
:10105000FF00D654547C3828060606060000CC78DB
:10106000303078CC07060606FF00E6663C18183CD0
:10107000050606060000F8D83060D8F80308080610
:1010800001FFE0C0C0C0C0C0C0E00408080600FF07
:1010900080804040202010100308080601FFE06017
:1010A0006060606060E00503030600042070D806FD
:1010B00001010600FEFC020202060206804006054F
:1010C0000506000070D878D8FC06070706FF00E088
:1010D00060786C6C6CF805050506000070D8C0D807
:1010E00070060707060000381878D8D8D87C0505A0
:1010F0000506000070D8F8C078050707060000381C
:1011000060F8606060F80607070600FE6CD8D8D863
:101110007818F006070706FF00E060786C6C6C6CCE
:101120000607070600003000F0303030FC040909E3
:101130000600FE3000F03030303030E007070706A0
:10114000FF00E0606C7870786E060707060000F01C
:101150003030303030FC06050506FF00F87C545472
:101160005406050506FF00D86C6C6C6C0505050679
:10117000000070D8D8D87006070706FFFEF86C6C20
:101180006C7860F00607070600FE6CD8D8D878188F
:101190003C060505060000DC746060F006050506E7
:1011A000000078E0781CF80607070600006060F889
:1011B00060606C3807050506FF00EC6C6C6C3E0641
:1011C000050506FF00EC6C38381007050506FF0022
:1011D000D6547C3C28060505060000EC783078DC07
:1011E00007070706FFFEEE6C6C283830E0050505A2
:1011F000060000F8B060D8F80408080601FF306067
:1012000060C0606060300107070602FF8080808058
:101210008080800408080600FFC060603060606065
:10122000C005020206000368B0FFFFFFFFFFFFFFDB
:10123000FFFFFFFFFFFFFFFFFFFFFFFFFFFFFFFFBE
:10124000FFFFFFFFFFFFFFFFFFFF000000060001A1
:101250000207070601FEC000C0C0C0C0C0050808E4
:101260000600FF202078C8C0782020060707060067
:1012700000386820F82064F805050506000188702C
:10128000507088060707060000CC48FC30FC307818
:101290000109090602FE8080808000808080800530
:1012A00008080600FF78486090483090F00301017C
:1012B000060105A00607070600003048B4A4B4489C
:1012C00030040505060102E010D000F00705050610
:1012D000FF00366CD86C36050303060002F80808D8
:1012E000050101060003F80707070600003844BAA5
:1012F000B2AA4438040101060005F0040303060005
:10130000046090600506060600002020F82000F822
:1013100003040406010360A040E003040406010383
:10132000E04020C0020202060205408007070706CF
:10133000FFFEEC6C6C6C7E40400608080600FF7CEB
:10134000A8A8682828286C020101060103C003032D
:10135000030601FE4020C0030404060103C0404010
:10136000E004050506010260906000F0070505062F
:10137000FF00D86C366CD807070706FF00C044484A
:10138000F42C5E0407070706FF00C04448F62A4411
:101390000E07070706FF00E04428D42C5E0405076B
:1013A000070600FE3000303060C87007090906FFEC
:1013B000002010007838287C6CEE07090906FF0031
:1013C0001020007838287C6CEE07090906FF001011
:1013D00028007838287C6CEE07090906FF0034489D
:1013E000007838287C6CEE07080806FF0028007893
:1013F00038287C6CEE07090906FF00304830783841
:10140000287C6CEE07060606FF007E3A6C78DADE72
:101410000508080600FE78D8C0C0D870106006091C
:101420000906FF00201000FC6478606CFC060909C6
:1014300006FF00102000FC6478606CFC06090906B9
:10144000FF00205000FC6478606CFC06080806FF72
:10145000005000FC6478606CFC0409090600004040
:101460002000F060606060F0040909060000204080
:1014700000F060606060F004090906000040A00010
:10148000F060606060F0040808060000A000F060F2
:10149000606060F006060606FF00F86CF4646CF805
:1014A00007090906FF00344800EE64747C6CEC0503
:1014B000090906000040200070D8D8D8D870050966
:1014C0000906000020400070D8D8D8D87005090956
:1014D00006000020500070D8D8D8D8700509090639
:1014E000000068900070D8D8D8D8700508080600A9
:1014F00000500070D8D8D8D87005050506000188BE
:101500005020508807060606FF003A6C7C6C6CB8C9
:1015100007090906FF00201000EE6C6C6C6C3807A0
:10152000090906FF00081000EE6C6C6C6C380709A6
:101530000906FF00102800EE6C6C6C6C3807080878
:1015400006FF002800EE6C6C6C6C3807090906FF7A
:1015500000040800E6663C18183C06060606FF0074
:10156000E0786C6C78E007060606FF0038687C6659
:1015700066EC060808060000201000709878D8FC79
:10158000060808060000102000709878D8FC0608AD
:1015900008060000205000709878D8FC060808065D
:1015A0000000689000709878D8FC060707060000D5
:1015B0005000709878D8FC060909060000304830C1
:1015C00000709878D8FC06050506FF006CB47CB066
:1015D000DC0507070600FE70D8C0D870106005084B
:1015E0000806000040200070D8F8C07805080806FA
:1015F000000020400070D8F8C078050808060000F8
:1016000020500070D8F8C078050707060000500089
:1016100070D8F8C078060808060000201000703066
:101620003030FC0608080600001020007030303012
:10163000FC06080806000020500070303030FC0620
:101640000707060000500070303030FC050808061F
:101650000000D060B078D8D8D87007080806FF001E
:10166000344800D86C6C6C6E0508080600004020F9
:101670000070D8D8D8700508080600002040007017
:10168000D8D8D87005080806000020500070D8D8B7
:10169000D87005080806000068900070D8D8D87087
:1016A000050707060000500070D8D8D8700505055A
:1016B0000600012000F800200507070600FF08705B
:1016C000D8F8D8708007080806FF00201000EC6CDE
:1016D0006C6C3E07080806FF00102000EC6C6C6C78
:1016E0003E07080806FF00102800EC6C6C6C3E07F3
:1016F000070706FF002800EC6C6C6C3E070A0A0620
:10170000FFFE081000EE6C6C283830F00609090660
:10171000FFFEE060786C6C6C7860F007090906FFEA
:10172000FE2800EE6C6C283830F000091200FC0A2C
:1017300001F203E120FFFD0EFC0BFD00000009009B
:101740000E020B0B090300C0C0C0C0C0C0C0000027
:10175000C0C0050404090207D8D8D8D8070A0A0966
:1017600001006C6C6CFE6C6CFE6C6C6C080B0B09F5
:1017700000FF187EDBD8783C1E1BDB7E18080A0AA7
:1017800009000073DEDE6C1818367B7BCE080A0A6F
:1017900009000070D8D8D87073DECCDE7302040460
:1017A000090307C0C0C0C0040C0C0902FF30606010
:1017B000C0C0C0C0C0C0606030040C0C0902FFC0D3
:1017C00060603030303030306060C008070709009A
:1017D0000118DB7E3C7EDB1808070709000118189A
:1017E00018FF1818180304040903FEE0E060C0079E
:1017F0000101090104FE030202090300E0E0080AF6
:101800000A0900000306060C1818306060C0070AB9
:101810000A090100386CC6C6C6C6C6C66C38080AB6
:101820000A090000183878D81818181818FF070A7D
:101830000A090100386CC606060C183060FE070A5B
:101840000A090100FE060C18380C0606CC78070AB7
:101850000A0901000C1C3C6CCCCCFE0C0C0C070AD9
:101860000A090100FEC0C0C0F80C0606CC78070AC1
:101870000A0901003C60C0C0F8CCC6C66C38070A33
:101880000A090100FE060C0C181830303030070A27
:101890000A090100386CC66C386CC6C66C38070A79
:1018A0000A090100386CC6C66E3E06060C780307AE
:1018B00007090300E0E0000000E0E0030909090374
:1018C000FEE0E0000000E0E060C006090909010058
:1018D0000C183060C06030180C070404090102FEC7
:1018E0000000FE060909090100C06030180C18301C
:1018F00060C0070A0A090100386CC6060C183030AF
:101900000030090A140900003E006300CD80D58034
:10191000D580D580D580CF0060003E00070A0A0937
:101920000100103838386C7C6CC6C6C6070A0A0934
:101930000100FCC6C6C6FCC6C6C6C6FC070A0A0924
:1019400001003C66C0C0C0C0C0C0663C070A0A09AE
:101950000100F8CCC6C6C6C6C6C6CCF8070A0A0936
:101960000100FEC0C0C0F8C0C0C0C0FE070A0A091E
:101970000100FEC0C0C0F8C0C0C0C0C0070A0A094C
:101980000100386CC6C0C0CEC6C66C38070A0A094A
:101990000100C6C6C6C6FEC6C6C6C6C6060A0A092F
:1019A0000100FC3030303030303030FC070A0A099A
:1019B00001001E0C0C0C0C0C0CCCCC78070A0A098C
:1019C0000100C6CCD8F0E0F0D8CCC6C6070A0A0998
:1019D0000100C0C0C0C0C0C0C0C0C0FE070A0A0924
:1019E0000100C6EEFED6C6C6C6C6C6C6070A0A09A6
:1019F0000100C6C6E6F6DECEC6C6C6C6070A0A0996
:101A000001007CC6C6C6C6C6C6C6C67C070A0A0989
:101A10000100F8CCC6C6CCF8C0C0C0C0080B0B098A
:101A200001FF386CC6C6C6C6C6DE6C3E03070A0A8E
:101A3000090100FCC6C6C6C6FCD8CCC6C6070A0A41
:101A40000901007CC6C0C07C060606C67C060A0AE0
:101A5000090100FC303030303030303030070A0AB5
:101A6000090100C6C6C6C6C6C6C6C66C38070A0A7D
:101A7000090100C6C6C66C6C6C38383810070A0AF3
:101A8000090100C6C6C6C6D6D6D6FEEE44070A0A67
:101A9000090100C6C66C381010386CC6C6080A0AA0
:101AA000090000C3C3663C181818181818070A0A5A
:101AB000090100FE06060C183060C0C0FE050C0CC3
:101AC0000902FFF8C0C0C0C0C0C0C0C0C0C0F80894
:101AD0000A0A090000C060603018180C06060304EA
:101AE0000C0C0902FFF03030303030303030303004
:101AF000F0080404090006183C66C3080101090047
:101B0000FFFF04030309020AC06030070707090149
:101B1000007C06067EC6C67E070A0A090100C0C010
:101B2000C0FCC6C6C6C6C6FC0707070901007CC6BE
:101B3000C0C0C0C67C070A0A0901000606067EC6A8
:101B4000C6C6C6C67E0707070901007CC6C6FEC01A
:101B5000C67C060A0A090100386C6C6060F060609F
:101B60006060070A0A0901FD7ECCCCCC78C07CC637
:101B7000C67C070A0A090100C0C0C0FCC6C6C6C6AA
:101B8000C6C6060A0A090100303000F03030303095
:101B900030FC050D0D0902FD18180038181818182A
:101BA0001818D8D870070A0A090100C0C0C0CCD8DC
:101BB000F0F0D8CCC6060A0A090100F03030303007
:101BC00030303030FC080707090000FEDBDBDBDBD0
:101BD000DBC3070707090100DCE6C6C6C6C6C607A1
:101BE0000707090100386CC6C6C66C38070A0A091F
:101BF00001FDF8CCC6C6C6CCF8C0C0C0070A0A09A9
:101C000001FD3E66C6C6C6663E060606070707090C
:101C10000100DC7660606060600707070901007CF6
:101C2000C6C07C06C67C0709090901003030FC30BB
:101C3000303030361C070707090100C6C6C6C6C6C5
:101C4000C67E070707090100C6C66C6C3838100845
:101C50000707090000C3C3DBDBDBFF6607070709D3
:101C60000100C66C3810386CC6070A0A0901FDC6A7
:101C7000C66C6C6C383830B060060707090100FC90
:101C80000C183060C0FC060B0B0901003C60606062
:101C900060C0606060603C020C0C0903FFC0C0C003
:101CA000C0C0C0C0C0C0C0C0C0060B0B090100E06E
:101CB000303030301C30303030E00803030900078A
:101CC00073DBCEFFFFFFFFFFFFFFFFFFFFFFFFFF05
:101CD000FFFFFFFFFFFFFFFFFFFFFFFFFFFFFFFF14
:101CE000FFFFFFFF00000009000E020A0A090400BE
:101CF000C000C0C0C0C0C0C0C0C007080809010003
:101D0000047CCED0D0E67C40080A0A0900FF1E33CE
:101D100030307C3030F8BFE0070707090102C6FE0B
:101D20006C446CFEC6080A0A090000C3C3663C7E08
:101D3000187E181818020B0B0903FFC0C0C0C0C0E2
:101D400000C0C0C0C0C0060B0B0901FF78CCC07832
:101D5000CCCCCC780CCC7805020209020BD8D80880
:101D60000B0B0900003C7EC3BDA5A1A5BDC37E3CF5
:101D7000050707090103701878D87800F8080808E3
:101D80000900011B366CD8D86C361B070505090104
:101D900002FEFE060606060101090104FC080B0B03
:101DA0000900003C7EC3BDA5BDA9ADC37E3C0602B3
:101DB00002090109FCFC05040409010870D8D87067
:101DC000060909090101303030FC30303000FC05D3
:101DD000060609010470D8183060F80506060901E6
:101DE0000470D83018D87004030309020A3060C0A8
:101DF0000709090901FEC6C6C6C6CEDEF6C0C00781
:101E00000A0A0901007EF6F6F676363636363603CD
:101E10000202090304E0E00603030901FD18CC787F
:101E200004060609010460E0606060F00507070928
:101E3000010370D8D8D87000F8080808090001D844
:101E40006C361B1B366CD8080B0B09000060E06079
:101E5000606163F70F1B1F03080B0B09000060E0B4
:101E600060606E73F3060C181F080B0B09000070FE
:101E7000981830199B770F1B1F03070A0A090100E6
:101E8000181800183060C0C6C67C070E0E09010085
:101E900060301800103838386C7C6CC6C6C6070E27
:101EA0000E0901000C183000103838386C7C6CC6F4
:101EB000C6C6070E0E09010010386C0010383838FD
:101EC0006C7C6CC6C6C6070D0D09010076DC0010DF
:101ED0003838386C7C6CC6C6C6070D0D0901006C1D
:101EE0006C00103838386C7C6CC6C6C6070E0E09FC
:101EF0000100386C6C38103838386C7C6CC6C6C63B
:101F0000070A0A0901003E3C6C6C6EFCCCCCCCCEBE
:101F1000070E0E0901FC3C66C0C0C0C0C0C0663CD4
:101F2000180C6C38070E0E09010060301800FEC056
:101F3000C0C0F8C0C0C0C0FE070E0E0901000C18DA
:101F40003000FEC0C0C0F8C0C0C0C0FE070E0E0901
:101F5000010010386C00FEC0C0C0F8C0C0C0C0FE98
:101F6000070D0D0901006C6C00FEC0C0C0F8C0C0B8
:101F7000C0C0FE060E0E09010060301800FC3030B3
:101F8000303030303030FC060E0E0901000C1830B5
:101F900000FC3030303030303030FC060E0E09019D
:101FA0000010386C00FC3030303030303030FC06FF
:101FB0000D0D0901006C6C00FC30303030303030D9
:101FC00030FC080A0A0900007C666363F3636363FC
:101FD000667C070D0D09010076DC00C6C6E6F6DE5C
:101FE000CEC6C6C6C6070E0E090100603018007CBA
:101FF000C6C6C6C6C6C6C6C67C070E0E0901000CFC
:102000001830007CC6C6C6C6C6C6C6C67C070E0E3D
:1020100009010010386C007CC6C6C6C6C6C6C6C656
:102020007C070D0D09010076DC007CC6C6C6C6C65D
:10203000C6C6C67C070D0D0901006C6C007CC6C6C7
:10204000C6C6C6C6C6C67C080707090001C3663CEB
:10205000183C66C3070C0C0901FF067ECECEDEDEFF
:10206000F6F6E6E6FCC0070E0E0901006030180027
:10207000C6C6C6C6C6C6C6C66C38070E0E0901005F
:102080000C183000C6C6C6C6C6C6C6C66C38070E13
:102090000E09010010386C00C6C6C6C6C6C6C6C644
:1020A0006C38070D0D0901006C6C00C6C6C6C6C6AB
:1020B000C6C6C66C38080E0E0900000C183000C3E6
:1020C000C3663C181818181818070A0A090100C036
:1020D000C0FCC6C6C6FCC0C0C0070A0A0901003C55
:1020E000666666EC666666666C070B0B0901006047
:1020F0003018007C06067EC6C67E070B0B09010061
:102100000C1830007C06067EC6C67E070B0B090144
:102110000010386C007C06067EC6C67E070A0A09D7
:10212000010076DC007C06067EC6C67E070A0A0928
:1021300001006C6C007C06067EC6C67E070B0B0990
:102140000100386C38007C06067EC6C67E0807078C
:10215000090000761B1B7FD8DB76070B0B0901FCFF
:102160007CC6C0C0C0C67C180C6C38070B0B0901BC
:1021700000603018007CC6C6FEC0C67C070B0B0989
:1021800001000C1830007CC6C6FEC0C67C070B0BD5
:1021900009010010386C007CC6C6FEC0C67C070A68
:1021A0000A0901006C6C007CC6C6FEC0C67C060B2A
:1021B0000B090100C0603000F03030303030FC06D8
:1021C0000B0B0901000C183000F03030303030FCBF
:1021D000060B0B0901002070D800F0303030303091
:1021E000FC060A0A0901006C6C00F0303030303017
:1021F000FC070B0B0901006C38386C0C7EC6C6C698
:10220000C67C070A0A09010076DC00DCE6C6C6C601
:10221000C6C6070B0B09010060301800386CC6C633
:10222000C66C38070B0B0901000C183000386CC65F
:10223000C6C66C38070B0B09010010386C00386CEF
:10224000C6C6C66C38070A0A09010076DC00386C7D
:10225000C6C6C66C38070A0A0901006C6C00386CE7
:10226000C6C6C66C38080707090001181800FF0029
:1022700018180809090900FF013F66CFDBF366FC67
:1022800080070B0B09010060301800C6C6C6C6C621
:10229000C67E070B0B0901000C183000C6C6C6C667
:1022A000C6C67E070B0B09010010386C00C6C6C6F7
:1022B000C6C6C67E070A0A0901006C6C00C6C6C6FF
:1022C000C6C6C67E070E0E0901FD0C183000C6C634
:1022D0006C6C6C383830B060070B0B0901FEC0C065
:1022E000F8CCC6C6C6CCF8C0C0070D0D0901FD6C00
:1022F0006C00C6C66C6C6C383830B060E2171124C4
:102300001FBECFE5D8E0DEBFCDBF10E0A0E6B0E055
:10231000E8E1F9E402C005900D92AE3DB107D9F7AE
:1023200021E0AEEDB0E001C01D92AD3DB207E1F796
:1023300012E2CEEFD2E204C02297FE010E94862470
:10234000CC3FD107C9F70E9433220C948A240C9405
:102350000000CF93DF93EC01262F4CAD6BAD0496BC
:102360000E94971B2BAD992787FD9095820F911D99
:102370008BAF81E090E0DF91CF9108956AE277E141
:1023800087E191E00E943C1C25E730E04FE060E0EF
:1023900087E191E00E94B71B29E730E048E268E25C
:1023A00087E191E00E94B71B2FE730E040E460E551
:1023B00087E191E00C94B71B4F925F926F927F92EE
:1023C0008F929F92AF92BF92CF92DF92EF92FF9245
:1023D000CF93DF93CDB7DEB760970FB6F894DEBF2B
:1023E0000FBECDBF1092DE008091DE00811124C0AF
:1023F00085E20E945120BC01882777FD8095982FA7
:102400000E9447239B01AC0160910F017091100164
:1024100080911101909112010E94442260930F015A
:102420007093100180931101909312018091DE004E
:102430008F5F8093DE00D8CF1092DE008091DE00A7
:102440008A3020F58FE10E945120BC01882777FD5A
:102450008095982F0E9447239B01AC0160910B014E
:1024600070910C0180910D0190910E010E94442207
:1024700060930B0170930C0180930D0190930E01FA
:102480008091DE008F5F8093DE00D8CF1092DE0057
:102490008091DE008A3020F580E20E945120BC014C
:1024A000882777FD8095982F0E9447239B01AC01D8
:1024B00060910701709108018091090190910A01D2
:1024C0000E944422609307017093080180930901E0
:1024D00090930A018091DE008F5F8093DE00D8CF59
:1024E0001092DE008091DE008A3020F581E20E94A9
:1024F0005120BC01882777FD8095982F0E944723A3
:102500009B01AC0160910301709104018091050170
:10251000909106010E94442260930301709304018C
:1025200080930501909306018091DE008F5F809378
:10253000DE00D8CF1092DE008091DE008A3020F5D8
:1025400082E20E945120BC01882777FD8095982F58
:102550000E9447239B01AC016091FF007091000134
:1025600080910101909102010E9444226093FF003A
:102570007093000180930101909302018091DE002D
:102580008F5F8093DE00D8CF1092DE008091DE0056
:102590008A3020F583E20E945120BC01882777FD14
:1025A0008095982F0E9447239B01AC016091FB000E
:1025B0007091FC008091FD009091FE000E944422E9
:1025C0006093FB007093FC008093FD009093FE00ED
:1025D0008091DE008F5F8093DE00D8CF1092DE0006
:1025E0008091DE008A3020F584E20E945120BC01F7
:1025F000882777FD8095982F0E9447239B01AC0187
:102600006091F7007091F8008091F9009091FA00C4
:102610000E9444226093F7007093F8008093F900C1
:102620009093FA008091DE008F5F8093DE00D8CF18
:1026300020E030E0A90160910F01709110018091BC
:102640001101909112010E94FB232AE939E949E125
:1026500050E40E94FB236B017C0160930F01709397
:102660001001809311019093120120E030E040E2CC
:1026700051E460910B0170910C0180910D019091DA
:102680000E010E94AC2220E030E040E650E40E94BF
:1026900043224B015C0120E030E0A9010E94A82206
:1026A00018164CF480920B0190920C01A0920D012F
:1026B000B0920E0108C010920B0110920C01109202
:1026C0000D0110920E0120E030E0A90160910B0194
:1026D00070910C0180910D0190910E010E94FB23DD
:1026E0002B013C0160930B0170930C0180930D0151
:1026F00090930E0120E030E040E251E46091070148
:10270000709108018091090190910A010E94AC2208
:102710004B015C0120E030E0A9010E94A8221816BC
:102720004CF48092070190920801A0920901B092A6
:102730000A0108C0109207011092080110920901C5
:1027400010920A0120E030E040E65BE3609107016F
:10275000709108018091090190910A010E94FB2368
:1027600069837A838B839C8360930701709308014C
:102770008093090190930A0120E030E040E251E4A7
:10278000609103017091040180910501909106010F
:102790000E94AC2220E030E040E650E40E94432258
:1027A0004B015C0120E030E0A9010E94A82218162C
:1027B0004CF48092030190920401A0920501B09222
:1027C000060108C010920301109204011092050145
:1027D0001092060120E030E040E25BE360910301EB
:1027E0007091040180910501909106010E94FB23E4
:1027F0006D837E838F8398876093030170930401B8
:10280000809305019093060120E030E040E251E41E
:102810006091FF007091000180910101909102018F
:102820000E94AC2220E030E040E650E40E944322C7
:102830004B015C0120E030E0A9010E94A82218169B
:102840004CF48092FF0090920001A0920101B0929E
:10285000020108C01092FF001092000110920101C5
:102860001092020120E030E040E25BE36091FF0063
:102870007091000180910101909102010E94FB235F
:1028800069877A878B879C876093FF00709300012C
:10289000809301019093020120E030E040E251E496
:1028A0006091FB007091FC008091FD009091FE0012
:1028B0000E94AC2220E030E040E650E40E94432237
:1028C0004B015C0120E030E0A9010E94A82218160B
:1028D0004CF48092FB009092FC00A092FD00B0921C
:1028E000FE0008C01092FB001092FC001092FD0048
:1028F0001092FE0020E030E040E25BE36091FB00DC
:102900007091FC008091FD009091FE000E94FB23DD
:102910006D877E878F87988B6093FB007093FC0098
:102920008093FD009093FE0020E030E040E251E40F
:102930006091F7007091F8008091F9009091FA0091
:102940000E94AC2220E030E040E650E40E944322A6
:102950004B015C0120E030E0A9010E94A82218167A
:102960004CF48092F7009092F800A092F900B09297
:10297000FA0008C01092F7001092F8001092F900C7
:102980001092FA0020E030E040E25BE36091F70053
:102990007091F8008091F9009091FA000E94FB2359
:1029A0004B015C016093F7007093F8008093F9008D
:1029B0009093FA00A3019201C701B6010E94FB2384
:1029C0006093F3007093F4008093F5009093F60009
:1029D00029813A814B815C81C701B6010E94FB23AA
:1029E0006093EF007093F0008093F1009093F200F9
:1029F0002D813E814F815885C701B6010E94FB237E
:102A00006093EB007093EC008093ED009093EE00E8
:102A100029853A854B855C85C701B6010E94FB2359
:102A20006093E7007093E8008093E9009093EA00D8
:102A30002D853E854F855889C701B6010E94FB232D
:102A40006093E3007093E4008093E5009093E600C8
:102A5000A5019401C701B6010E94FB236093DF002A
:102A60007093E0008093E1009093E20060960FB6CF
:102A7000F894DEBF0FBECDBFDF91CF91FF90EF90F6
:102A8000DF90CF90BF90AF909F908F907F906F908E
:102A90005F904F900895DF92EF92FF920F931F93F4
:102AA000CF93DF9361EB7DE087E191E00E943C1CD6
:102AB000D5E0D0934E01C8E0C0934F0165E870E0C7
:102AC00083E191E00E94A320D0934E0180E1D82EB3
:102AD000D0924F016CE870E083E191E00E94A32066
:102AE000D0934E0198E1E92EE0924F0163E970E046
:102AF00083E191E00E94A320D0934E0120E2F22EC8
:102B0000F0924F016AE970E083E191E00E94A32016
:102B1000D0934E0108E200934F0161EA70E083E137
:102B200091E00E94A320D0934E0110E310934F0137
:102B300068EA70E083E191E00E94A320DDE2D09397
:102B40004E01C0934F0140910B0150910C016091D7
:102B50000D0170910E0122E030E083E191E00E94CE
:102B60003022D0934E01D0924F01409107015091F5
:102B700008016091090170910A0122E030E083E1CF
:102B800091E00E943022D0934E01E0924F0140919B
:102B9000030150910401609105017091060122E04A
:102BA00030E083E191E00E943022D0934E01F09218
:102BB0004F014091FF00509100016091010170911F
:102BC000020122E030E083E191E00E943022D093C4
:102BD0004E0100934F014091FB005091FC00609129
:102BE000FD007091FE0022E030E083E191E00E9460
:102BF0003022D0934E0110934F014091F700509135
:102C0000F8006091F9007091FA0022E030E083E171
:102C100091E00E943022D8E4D0934E01C0934F013E
:102C20006FEA70E083E191E00E94A320D0934E010F
:102C3000D0924F016FEA70E083E191E00E94A320FF
:102C4000D0934E01E0924F016FEA70E083E191E092
:102C50000E94A320D0934E01F0924F016FEA70E0E2
:102C600083E191E00E94A320D0934E0100934F0195
:102C70006FEA70E083E191E00E94A320D0934E01BF
:102C800010934F016FEA70E083E191E00E94A3206E
:102C9000D7E5D0934E01C0934F014091F30050917E
:102CA000F4006091F5007091F60022E030E083E1DD
:102CB00091E00E943022D0934E01D0924F0140917A
:102CC000EF005091F0006091F1007091F20022E06D
:102CD00030E083E191E00E943022D0934E01E092F7
:102CE0004F014091EB005091EC006091ED0070912C
:102CF000EE0022E030E083E191E00E943022D093A8
:102D00004E01F0924F014091E7005091E800609130
:102D1000E9007091EA0022E030E083E191E00E9456
:102D20003022D0934E0100934F014091E300509127
:102D3000E4006091E5007091E60022E030E083E17C
:102D400091E00E943022D0934E0110934F014091A8
:102D5000DF005091E0006091E1007091E20022E01C
:102D600030E083E191E00E94302220E030E040E258
:102D700051E46091F3007091F4008091F50090911E
:102D8000F6000E94F72387FD02C088E701C08FE6A6
:102D900080934E01C0934F0161EB70E083E191E0BD
:102DA0000E94A32020E030E040E251E46091EF0077
:102DB0007091F0008091F1009091F2000E94F72351
:102DC00087FD02C088E701C08FE680934E0180E155
:102DD00080934F0161EB70E083E191E00E94A320BA
:102DE00020E030E040E251E46091EB007091EC00B3
:102DF0008091ED009091EE000E94F72387FD02C0C4
:102E000088E701C08FE680934E0188E180934F01EF
:102E100061EB70E083E191E00E94A32020E030E0CC
:102E200040E251E46091E7007091E8008091E90090
:102E30009091EA000E94F72387FD02C088E701C055
:102E40008FE680934E0180E280934F0161EB70E04A
:102E500083E191E00E94A32020E030E040E251E4D1
:102E60006091E3007091E4008091E5009091E600AC
:102E70000E94F72387FD02C088E701C08FE6809398
:102E80004E0188E280934F0161EB70E083E191E0B5
:102E90000E94A32020E030E040E251E46091DF0096
:102EA0007091E0008091E1009091E2000E94F72390
:102EB00087FD02C088E701C08FE680934E0180E362
:102EC00080934F0161EB70E083E191E00E94A320C9
:102ED00066E970E087E191E00E943C1C85E0809308
:102EE0004E01CCE3C0934F0163EB70E083E191E0CE
:102EF0000E94A3208BE480934E01C0934F01409128
:102F00000F0150911001609111017091120122E0A6
:102F100030E083E191E00E94302283E780934E010C
:102F2000C0934F016BEB70E083E191E0DF91CF91B3
:102F30001F910F91FF90EF90DF900C94A32087E1F9
:102F400091E00E946D1F80915001811107C081E0C6
:102F50008093500187E191E00E94481D87E191E054
:102F60000E94771D0E94BE1187E191E00E947C1DA6
:102F70008111F8CF60ED77E080E090E00C94F41FD1
:102F800080E00E944E200E94DC118091500181114E
:102F900007C081E08093500187E191E00E94481DC5
:102FA00087E191E00E94771D0E944B1587E191E037
:102FB0000E947C1D8111F8CF64E670E080E090E013
:102FC0000C94F41FCF93DF93109216011092150109
:102FD000C3E1D1E081EC90E09983888340E060E632
:102FE00070E0CE010E94FB1789EC90E09983888302
:102FF000DF91CF910895FC0113AE14AE15AE049687
:103000000C945A1D0F93FC010150040F84A996A93A
:10301000941718F0081728F402C0081750F0041786
:1030200040F42150260F83A995A9961720F428175C
:1030300020F480E007C0281720F481E0261710F064
:10304000F8CF81E00F910895DB011496ED91FC918A
:10305000159720E030E061E00994DB011496ED91D2
:10306000FC91159720E030E063E00994DB011496B1
:10307000ED91FC91159720E030E040E064E0099488
:10308000DB011496ED91FC91159720E030E041E0D2
:1030900064E00994DB011496ED91FC91159720E012
:1030A00030E062E00994DB011496ED91FC911597F4
:1030B00020E030E065E00994DB011496ED91FC918D
:1030C000159766E00994AF92BF92CF92DF92EF928C
:1030D000FF920F931F93CF93DF931F92CDB7DEB76D
:1030E0005C018B017A0180E0F7014491811109C0F4
:1030F0004F3FD9F1B801C5010E94531881112EC06C
:1031000039C04F3FB9F34E3FB9F1403F38F5403E2B
:1031100030F04F70B801C5010E944A181FC0403DF1
:1031200030F04F70B801C5010E942D1817C0403C07
:10313000B8F0B801C50149830E943618498142950B
:10314000407F4E5FC42ED12CC6010E94C419B80125
:10315000C5010E944018C6010E94C41980E006C043
:1031600047FDFCCF842F90E0F7CF81E0FFEFEF1A0F
:10317000FF0ABACF80E001C081E00F90DF91CF91CC
:103180001F910F91FF90EF90DF90CF90BF90AF9085
:103190000895CF93DF93EC018BA5882381F088E716
:1031A0000E947919882369F08EA1811106C00E94BE
:1031B000A519882331F01BA602C080E4F8CF81E076
:1031C00001C080E0DF91CF9108951F93CF93DF93EB
:1031D000142FE9016330B9F050F4613079F06230B6
:1031E00009F043C0FC0146A321E023A73EC066309E
:1031F00001F1673059F16530C1F50EC0FC0186A5BB
:103200000E944A1932C0FC0116A221E023A74111F5
:103210002CC00E94BE1929C00E94C918811103C088
:103220000E94BE1924C0812F0E94A51981111DC0C2
:10323000F7CF0E94C918882399F31123B1F089911F
:103240000E94A519882361F31150F7CF0E94C91875
:10325000882331F3112349F0FE0184910E94A519BE
:10326000882329F021961150F5CF81E001C080E03C
:10327000DF91CF911F91089590915301911104C056
:10328000809353016093510108951092530110925D
:10329000510108958093520111B884FF02C082E069
:1032A00001C080E280B90C944519CF93DF9300D020
:1032B000CDB7DEB720ED37E03A83298396B7982360
:1032C00091F429813A81232B49F48091520181FDA7
:1032D0000AC081E00E943C1980E006C029813A8141
:1032E00021503109E9CF81E00F900F90DF91CF910C
:1032F0000895CF93C82F84EA86BF61E080E80E94DA
:1033000055198823E9F091B1987F983021F09031D8
:1033100011F061E012C0C3B984E886BF62E080E8C2
:103320000E945519882361F08091520181FD0AC0E5
:1033300081B1887F883131F062E082E00E943C19DF
:1033400080E001C081E0CF91089583B984E886BF11
:1033500063E080E80E945519882361F08091520152
:1033600081FD0AC081B1887F883231F063E082E05C
:103370000E943C1980E0089581E0089584E986BFA9
:1033800064E080E10C9455192EEC37E0009729F0A9
:10339000F9013197F1F70197F9CF0895BF92CF92D4
:1033A000DF92EF92FF920F931F93CF93DF938C01E5
:1033B000EB01B42E790180E1481709F454C0841759
:1033C00000F1EAE04E1721F1FFE04F1357C041E052
:1033D000C8010E942D1840E0BE01C8010E944A1891
:1033E00041E8BE01C8010E945318F7014081BE01A7
:1033F000C8010E94531840E0BE01C8010E942D1868
:103400003BC081E1481791F1E5E14E1761F036C00C
:1034100042E0C8010E94241840E750E0BE01C80104
:103420000E9463182BC0CA80DB8048E650E0C801C8
:103430000E946318F6014481406BBE01C8010E94DE
:10344000531841E0BE01C8010E944A18AE01B801FC
:10345000C6010E94FE1D882301F140E0BE01C801A3
:103460000E942D180BC04FE550E002C044E550E02B
:10347000BE01C8010E94631881E010C097014B2D66
:10348000BE01C801DF91CF911F910F91FF90EF9086
:10349000DF90CF90BF900C94761E80E0DF91CF91AB
:1034A0001F910F91FF90EF90DF90CF90BF90089504
:1034B000FC01E60FF11D849190E0982F882731964A
:1034C000E4918E0F911D0895FC01849108950E944E
:1034D000641A882311F0823011F486E0089583E0A5
:1034E000089580E0089566E00C94581A68E00C9402
:1034F000581A0A96FC01849108950B96FC01849158
:103500000895BF92CF92DF92EF92FF920F931F9395
:10351000CF93DF93EC01E62E0C811D81C8010E9440
:10352000641AF82E8C819D810E94671AB82E21E0C2
:10353000F21619F0CC24CA9402C05FE0C52E8C812B
:103540009D810E94791AF82E8C819D810E947D1A9E
:10355000D82E8C819D810E94761AE0E6EE1538F413
:10356000009729F0080F191F41E6F42E10C08C8136
:103570009D810E94731AF0E4FE1538F4009729F03B
:10358000080F191F31E4F32E02C00F5E1F4FDE1427
:1035900040F4188A1B8A1C8A198A1A8A80E090E0F3
:1035A00050C0DF14B0F32B2D30E0F80184918F3F31
:1035B00019F40F5F1F4F40C0FE1036C08C819D81F3
:1035C0000E94641A98012F5F3F4FF801882311F081
:1035D000823091F484918B8BF90124912C8BF8012A
:1035E0003396E491E88BF8013496E491E98BF80185
:1035F0003596E491EA8B16C09491892F8F70825092
:103600008A8B92959F70998BF9012491822F8F70EC
:103610008C8B22952F702B8BF8013296E491E295DA
:10362000EF70E88BC8010DC0F8013296E491EC21EF
:103630000E0F111D020F131FFD1409F4AACFF394EE
:10364000B4CFDF91CF911F910F91FF90EF90DF905A
:10365000CF90BF9008954F925F927F928F929F92EA
:10366000AF92BF92CF92DF92EF92FF920F931F9390
:10367000CF93DF931F92CDB7DEB72C01162F742E98
:10368000622F0E94811A6C01009709F43EC0F2017A
:10369000848195810E94671AF82EF201838804893B
:1036A0009188910E8289781A172D101B282D412F91
:1036B000692DC2010E940218882321F1CF0CD11C70
:1036C000F7E08F0E869486948694A82CB12C17155B
:1036D000C9F0392D76018E2D8C19881578F4F701F3
:1036E000049120E0412F632FC20139830E948B1D7A
:1036F000FFEFEF1AFF0A3981385FEDCFCA0CDB1CF0
:103700001F5FE5CFF201808901C080E00F90DF915B
:10371000CF911F910F91FF90EF90DF90CF90BF90CE
:10372000AF909F908F907F905F904F9008950F93F0
:103730001F93CF93DF9300D01F92CDB7DEB78C01DC
:10374000DC015596ED91FC9156972B834A83698352
:1037500009954A81480F2B816981C8010F900F900C
:103760000F90DF91CF911F910F910C942B1BAF9273
:10377000BF92DF92EF92FF920F931F93CF93DF934D
:1037800000D0CDB7DEB78C01E62EF42EDC015596C5
:10379000ED91FC91569729833A830995F80E29817A
:1037A000A22E3A81B32ED12CF50121915F01222363
:1037B00041F04F2D6E2DC8010E942B1BE80ED80E34
:1037C000F3CF8D2D0F900F90DF91CF911F910F911F
:1037D000FF90EF90DF90BF90AF900895DC011496BA
:1037E0008D919C911597009709F43FC057962C91A5
:1037F0005797FC01211108C03596E4915896EC9337
:103800005897FC013C9611C0213041F43F96E49159
:103810005896EC935897FC01709607C03D96E4913A
:103820005896EC935897FC013E96849159968C9348
:10383000599758968C915897992787FD9095599646
:103840002C915997821B910927FD93955A962C919B
:103850005A97203441F0829FC0011124E6E09695EA
:103860008795EA95E1F75B968C93089521E73AE115
:10387000FC01368B258B0895CF93DF93EC018C816F
:103880009D818617970749F07D836C83CE010E9446
:10389000EE1B81E79AE19E8B8D8BDF91CF9108958E
:1038A0001F93CF93DF93EC011D821C821F821E8227
:1038B000198681E0888782E28A871F861E8680E0DB
:1038C00090E02FEFFE01E80FF91F23A301968E3041
:1038D0009105C1F711E018A3CE010E94361C1F8B81
:1038E000188E198E80E48A8F1B8E85E89FE19AAB33
:1038F00089ABDF91CF911F910895DB01ED91FC9190
:103900000994EF92FF921F93CF93DF9300D0CDB72E
:10391000DEB77C01DC01D196ED91FC91D29782E07B
:1039200069837A83099520E030E04AE069817A81F1
:10393000C7010E947D1C182FD701D196ED91FC91F3
:10394000D29783E00995D701D196ED91FC91D2975A
:1039500080E00995812F0F900F90DF91CF911F91FB
:10396000FF90EF9008950F931F93CF93DF93EC0197
:103970008B01E9A9FAA982E00995E9A9FAA981E0F0
:10398000099520E030E044E1B801CE010E947D1CA1
:103990009E012D5C3F4F47E1B801CE010E947D1C86
:1039A000E9A9FAA980E0DF91CF911F910F910994C5
:1039B000FF920F931F93CF93DF93EC018B01E9A943
:1039C000FAA982E00995E9A9FAA981E0099520E020
:1039D00030E045E1B801CE010E947D1CF82E88231D
:1039E00041F09E012D5C3F4F47E1B801CE010E949E
:1039F0007D1CE9A9FAA980E009958F2DDF91CF916F
:103A00001F910F91FF900895CF93DF931F92CDB731
:103A1000DEB79E012F5F3F4F46E40E947D1C8981E7
:103A20000F90DF91CF910895CF93DF931F92CDB781
:103A3000DEB79E012F5F3F4F47E40E947D1C8981C6
:103A40000F90DF91CF91089520E030E048E40C948E
:103A50007D1CCF93DF93EC016A817B810E94041D62
:103A600088836A817B81CE010E94141D89836A81CB
:103A70007B81CE010E94241D8B879E012D5C3F4FD0
:103A80006A817B8147E1CE01DF91CF910C947D1C4F
:103A9000CF93DF93EC016A817B810E94811C882394
:103AA00029F0CE010E94291D81E001C080E0DF9154
:103AB000CF910895EF92FF920F931F93CF93DF93CF
:103AC0001F92CDB7DEB77C018B0149830E94501C49
:103AD000F70113830283498146A7C7010F90DF9145
:103AE000CF911F910F91FF90EF900C94481DFC0116
:103AF000628173810C94B31CCF93DF93EC01EE854C
:103B0000FF85309709F009956A817B81CE01DF91AD
:103B1000CF910C94D81C0F93FC0182819381648F08
:103B2000458F278F068F9F01245E3F4F4BE3BC01DB
:103B3000CF010F910C947D1CFC0112828081815079
:103B4000838314820895FC0120818281820F828305
:103B50009181891760F484818F5F84838381820FD0
:103B6000891710F08FEF890F838381E0089580E03B
:103B70000895DC011696ED91FC91179715968C919E
:103B80009F01280F311DC9011192E817F907E1F7CC
:103B90000895FC0191E08381861708F490E021E00C
:103BA000461708F020E0322F392B81E0528145176B
:103BB00008F480E083239223892B0895DC01FB0124
:103BC000108212968C911297818315968C9115977D
:103BD0008150828313968C9183830895FB014181E8
:103BE0002381213029F0233031F468EF640F04C0C1
:103BF000642F485F01C0642F0C94C91DFC01CB01E8
:103C0000BA012681378145810C945C18DC01169637
:103C1000ED91FC91179712968C91481B477081E0AB
:103C200090E0042E01C0880F0A94EAF7E60FF11D18
:103C30003081222311F0832B02C08095832380835F
:103C40000895FB014181DC0112962C9112974217D5
:103C500068F013962C911397241740F06081159605
:103C60002C91621718F424810C94061E0895CF92AB
:103C7000DF92FF920F931F93CF93DF9300D0CDB7C6
:103C8000DEB78C016B01FB01F2808381813039F05A
:103C900070F0823039F0833041F020E001C021E043
:103CA00030E007C020E03FEF04C02FEFF9CF20E065
:103CB00031E0F7FE08C0B601C80129833A830E94AB
:103CC000211E3A812981F6018081830F80838181C1
:103CD000820F8183FF0C69F70F900F90DF91CF91D6
:103CE0001F910F91FF90DF90CF9008950F931F9336
:103CF000CF93DF938901FB01C281D3814233F9F075
:103D000068F4453109F1473141F1443181F5CE0183
:103D10000E94B91DCE010E949C1D29C0463411F19C
:103D2000473411F14B3319F5B901CE010E94EE1D54
:103D30008823E9F0B801CE010E94371E18C0B901EE
:103D4000CE010E94211E13C0CE010E94A31D882314
:103D500081F0CE010E94B91D0AC0B901CE010E94B6
:103D6000DE1D05C08D8101C08981F801808381E05D
:103D700001C080E0DF91CF911F910F91089580E005
:103D800008958F929F92BF92CF92DF92EF92FF920F
:103D90000F931F93CF93DF931F92CDB7DEB78C01A4
:103DA0004901FB01E280F380423309F457C048F433
:103DB0004C3209F453C04D3209F464C04731D9F094
:103DC00009C0463409F440C0473409F441C04B33BC
:103DD00009F458C09401B701C8010F90DF91CF9149
:103DE0001F910F91FF90EF90DF90CF90BF909F9029
:103DF0008F900C947D1C47E1B7010E947D1CB70198
:103E0000C8010E94041DF401B280B094B80EB7013D
:103E1000C8010E94041DF401D080D094D80EB701CF
:103E2000C8010E94141DF401C380C094C80EB701DC
:103E3000C8010E94141DF40191819095980FB082E1
:103E4000C182D28293833BC0B7010E94041D03C08C
:103E5000B7010E94141DF401808331C0B701C8016D
:103E600049830E94141DF401D180D094D80EB7016B
:103E7000C8010E94041DF40190819095980F9083D1
:103E8000D18217C0B701C80149830E94141DF401F3
:103E9000D180D094D80EB701C8010E94041DF4014E
:103EA00090819095980F9083D18283818E5F8370EB
:103EB000838394014981B701C8010E947D1C81E080
:103EC0000F90DF91CF911F910F91FF90EF90DF90B6
:103ED000CF90BF909F908F900895FC0122813381F5
:103EE000F0E02E363F0749F03093710020937000C8
:103EF0002EE630E0FC013383228321EC3EE1309357
:103F00006F0020936E000C94291D08951F920F924C
:103F10000FB60F9211242F933F938F939F93AF93DC
:103F2000BF938091D5019091D601A091D701B09116
:103F3000D8013091D40126E0230F2D3720F40296CA
:103F4000A11DB11D05C029E8230F0396A11DB11DB8
:103F50002093D4018093D5019093D601A093D701EB
:103F6000B093D8018091D9019091DA01A091DB0141
:103F7000B091DC010196A11DB11D8093D9019093F0
:103F8000DA01A093DB01B093DC01BF91AF919F9167
:103F90008F913F912F910F900FBE0F901F9018950A
:103FA0003FB7F8948091D9019091DA01A091DB019B
:103FB000B091DC0122B708B600FE05C02F3F19F012
:103FC0000196A11DB11D3FBF6627782F892F9A2F1B
:103FD000620F711D811D911D43E0660F771F881FC1
:103FE000991F4A95D1F708958F929F92AF92BF92F1
:103FF000CF92DF92EF92FF926B017C010E94D01F63
:104000004B015C01C114D104E104F104F1F00E9400
:1040100042220E94D01F681979098A099B09683ECB
:1040200073408105910570F321E0C21AD108E108BF
:10403000F10888EE880E83E0981EA11CB11CC11403
:10404000D104E104F10429F7DDCFFF90EF90DF9078
:10405000CF90BF90AF909F908F900895789483B742
:10406000826083BF83B7816083BF89B7816089BF66
:104070001EBC8EB582608EBD8EB581608EBD8FB543
:1040800081608FBD85B5846085BD85B5806485BD43
:10409000329A319A3098379A1AB8089580937400FA
:1040A00008958E3008F08E5087702091740090E44F
:1040B000299F90011124822B87B9369A3699FECF19
:1040C00084B125B190E0922B0895CF92DF92EF92C8
:1040D000FF920F931F93CF93DF937C016A01EB0153
:1040E00000E010E00C151D0571F06991D701ED910C
:1040F000FC910190F081E02DC7010995892B19F001
:104100000F5F1F4FEFCFC801DF91CF911F910F912C
:10411000FF90EF90DF90CF9008956115710581F0C9
:10412000DB010D900020E9F7AD0141505109461B1C
:10413000570BDC01ED91FC910280F381E02D099495
:1041400080E090E008950C948D20DC01ED91FC91CD
:104150000190F081E02D09948F929F92AF92BF92CF
:10416000DF92EF92FF920F931F93CF93DF93CDB720
:10417000DEB7A1970FB6F894DEBF0FBECDBF7C01AE
:10418000F42FD52ECB0119A2223008F42AE08E019B
:104190000F5D1F4F822E912CA12CB12C6F2F7D2DE6
:1041A000A50194010E946224F22FD32ECA0101506E
:1041B00011096A3014F4E0E301C0E7E3E60FD80127
:1041C000EC93232B242B252B49F7B801C7010E9420
:1041D0008D20A1960FB6F894DEBF0FBECDBFDF9144
:1041E000CF911F910F91FF90EF90DF90BF90AF9014
:1041F0009F908F900895CF92DF92EF92FF920F934E
:104200001F93CF93DF93EC016A017B0121153105E8
:1042100079F4E881F9810190F081E02D642FDF913C
:10422000CF911F910F91FF90EF90DF90CF90099465
:104230002A303105E9F477FF1AC06DE20E94A5200B
:104240008C0144275527BA014C195D096E097F0975
:104250002AE0CE010E94AC20800F911FDF91CF9108
:104260001F910F91FF90EF90DF90CF9008952AE07B
:10427000B701A601CE01DF91CF911F910F91FF9061
:10428000EF90DF90CF900C94AC204F925F926F92A2
:104290007F928F929F92AF92BF92CF92DF92EF92D6
:1042A000FF920F931F93CF93DF93EC016A017B0181
:1042B000B22E9A01AB01C701B6010E945E24882389
:1042C00019F060ED70E027C026013701E89477F817
:1042D0002FEF3FEF4FE75FE7C301B2010E945E247B
:1042E00081110DC02FEF3FEF4FE75FE7C301B20130
:1042F0000E94A82218161CF464ED70E00CC02FEF89
:104300003FEF4FE75FE4C701B6010E94F72318169D
:10431000ACF468ED70E0CE01DF91CF911F910F9169
:10432000FF90EF90DF90CF90BF90AF909F908F90D5
:104330007F906F905F904F900C948D202FEF3FEF08
:104340004FE75FECC701B6010E94A82287FDE1CFCD
:1043500020E030E0A901C701B6010E94A82287FF32
:104360000AC06DE2CE010E94A5208C01F7FAF094FC
:10437000F7F8F09402C000E010E0A12C60E070E0DB
:1043800080E09FE3AB1441F020E030E040E251E4F4
:104390000E94AC22A394F6CF9B01AC01C701B601E9
:1043A0000E9444226B017C010E9419232B013C01D5
:1043B0000E9445239B01AC01C701B6010E94432224
:1043C0006B017C012AE0B301A201CE010E94AC2066
:1043D000080F191FBB2039F06CED70E0CE010E9470
:1043E0008D20080F191F7B2C772041F120E030E051
:1043F00040E251E4C701B6010E94FB236B017C013E
:104400000E9414234B01AA2497FCA094BA2C2AE002
:1044100030E0B501A401CE010E94FB20080F191F56
:10442000C501B4010E9447239B01AC01C701B6013D
:104430000E9443226B017C017A94D6CFC801DF91A0
:10444000CF911F910F91FF90EF90DF90CF90BF9091
:10445000AF909F908F907F906F905F904F90089556
:104460000C94452108950E942E200E9432220E9421
:104470009F17C0E0D0E00E94C0172097E1F30E9490
:104480000000F9CF08955058BB27AA270ED075C158
:1044900066D130F06BD120F031F49F3F11F41EF45F
:1044A0005BC10EF4E095E7FB51C1E92F77D180F3B2
:1044B000BA17620773078407950718F071F49EF521
:1044C0008FC10EF4E0950B2EBA2FA02D0B01B90170
:1044D00090010C01CA01A0011124FF27591B99F07A
:1044E000593F50F4503E68F11A16F040A22F232F86
:1044F000342F4427585FF3CF469537952795A795D6
:10450000F0405395C9F77EF41F16BA0B620B730B7C
:10451000840BBAF09150A1F0FF0FBB1F661F771FED
:10452000881FC2F70EC0BA0F621F731F841F48F4A2
:10453000879577956795B795F7959E3F08F0B3CF28
:104540009395880F08F09927EE0F97958795089512
:10455000D9D008F481E008950CD00FC107D140F004
:10456000FED030F021F45F3F19F0F0C0511139C195
:10457000F3C014D198F39923C9F35523B1F3951BD4
:10458000550BBB27AA2762177307840738F09F5F74
:104590005F4F220F331F441FAA1FA9F333D00E2EE3
:1045A0003AF0E0E830D091505040E695001CCAF750
:1045B00029D0FE2F27D0660F771F881FBB1F261715
:1045C00037074807AB07B0E809F0BB0B802DBF01E8
:1045D000FF2793585F4F2AF09E3F510568F0B6C001
:1045E00000C15F3FECF3983EDCF3869577956795C5
:1045F000B795F7959F5FC9F7880F911D9695879599
:1046000097F90895E1E0660F771F881FBB1F6217B7
:1046100073078407BA0720F0621B730B840BBA0B75
:10462000EE1F88F7E095089504D06894B111D9C0C1
:104630000895BCD088F09F5790F0B92F9927B751B3
:10464000A0F0D1F0660F771F881F991F1AF0BA9556
:10465000C9F712C0B13081F0C3D0B1E00895C0C035
:10466000672F782F8827B85F39F0B93FCCF386954C
:1046700077956795B395D9F73EF4909580957095A9
:1046800061957F4F8F4F9F4F0895E89409C097FB26
:104690003EF490958095709561957F4F8F4F9F4F19
:1046A0009923A9F0F92F96E9BB279395F69587955D
:1046B00077956795B795F111F8CFFAF4BB0F11F420
:1046C00060FF1BC06F5F7F4F8F4F9F4F16C08823C7
:1046D00011F096E911C0772321F09EE8872F762FFD
:1046E00005C0662371F096E8862F70E060E02AF03E
:1046F0009A95660F771F881FDAF7880F969587952A
:1047000097F90895990F0008550FAA0BE0E8FEEFFE
:1047100016161706E807F907C0F012161306E40785
:10472000F50798F0621B730B840B950B39F40A267E
:1047300061F0232B242B252B21F408950A2609F45C
:10474000A140A6958FEF811D811D089597F99F6760
:1047500080E870E060E008959FEF80EC0895002409
:104760000A941616170618060906089500240A94D6
:1047700012161306140605060895092E0394000C5C
:1047800011F4882352F0BB0F40F4BF2B11F460FFEB
:1047900004C06F5F7F4F8F4F9F4F089557FD905814
:1047A000440F551F59F05F3F71F04795880F97FBF5
:1047B000991F61F09F3F79F08795089512161306AF
:1047C0001406551FF2CF4695F1DF08C016161706DE
:1047D0001806991FF1CF8695710561050894089513
:1047E000E894BB2766277727CB0197F908958ADFDE
:1047F00008F48FEF08950BD0C0CFB1DF28F0B6DFFB
:1048000018F0952309F0A2CFA7CF1124EACFC6DF75
:10481000A0F3959FD1F3950F50E0551F629FF001D3
:10482000729FBB27F00DB11D639FAA27F00DB11D2C
:10483000AA1F649F6627B00DA11D661F829F2227B5
:10484000B00DA11D621F739FB00DA11D621F839F3C
:10485000A00D611D221F749F3327A00D611D231F12
:10486000849F600D211D822F762F6A2F11249F5760
:1048700050408AF0E1F088234AF0EE0FFF1FBB1F83
:10488000661F771F881F91505040A9F79E3F510522
:1048900070F05CCFA6CF5F3FECF3983EDCF38695DB
:1048A00077956795B795F795E7959F5FC1F7FE2BCD
:1048B000880F911D9695879597F9089523DF880BAA
:1048C000990B0895A1E21A2EAA1BBB1BFD010DC076
:1048D000AA1FBB1FEE1FFF1FA217B307E407F507B0
:1048E00020F0A21BB30BE40BF50B661F771F881F8C
:1048F000991F1A9469F760957095809590959B0122
:10490000AC01BD01CF010895EE0FFF1F0590F4919A
:08491000E02D0994F894FFCF9B
:10491800CE196600E5180840000000805401BF1E4B
:10492800000000000155534200506F776572004D3A
:10493800657465720055534220313A005553422040
:10494800323A0055534220333A0055534220343A04
:104958000055534220353A0055534220363A00411B
:10496800005700566F6C74616765005600000000C0
:1049780000A911652000000000A91165200D0A009A
:0E4988006E616E00696E66006F7666002E002E
:00000001FF
