:1000030048454C4C4F5721504C4541534520544F84
:10001300554348204D452100545020544553542105
:1000230000583A00593A00851B025A1A9B12BB1218
:10003300BB1ABC0ABB22DC333C12BC12BB12BC127F
:10004300BC12BB12BB12BB129B0A7B1ADC1AFB222B
:10005300DB0ABB129B12BA12BA12BA12BB12BB1240
:10006300BB12BB12BB12BB12BA12BA12BA12BB1228
:10007300BB12BB12DA12DA12DA12DA12DA12FA123B
:10008300F91AFA196A1061108210620841084108CE
:1000930062086208610861106208610861106210F9
:1000A300821082108210821082106210621062101D
:1000B30062106210821062106210A3212531863112
:1000C300C83A4B428C31A718C310830882086118C1
:1000D300C318C30882108218C318E418C310C308D6
:1000E300A318E4214619252145088210C30862009C
:1000F30021084108421083294531A731864A6A52B3
:10010300AC39C72104084110C4190619F112D912D8
:10011300B80AB802786C9B851B025A129B12BB1259
:10012300BB0A9B2B5B6C9B4BDB439C0A9C12BC1254
:10013300BB12BB12BB0A7B22DA645A4BDA64195333
:10014300FA5C5B1ADA0A9A12BB12BA1ADA129B1217
:100153009B129B12BB12BB12BB12BB12BB12BB1274
:10016300BB12BB12BB12DB12DA12DA12DA12F91368
:100173001A1A1010830882086208610841084110A6
:1001830082086108610861086110821082106208A8
:100193006108611062106208610841084108410862
:1001A3006110A2108210621062106218A3294542E6
:1001B3004B4A6B39E8292520C3292418A220C329D7
:1001C3000418A318C3210418C310821082108319C2
:1001D3000410A31905212518E410A310C30862080D
:1001E30062086210A3086220E44A29524A39E84AA5
:1001F300AB4A2939E8296610A3190821AD127612F2
:10020300B90AB802786C9B851B0A5A12BB129B125F
:10021300BB0A9B645B22FB231C53FB0A9C12BC128C
:10022300BB12BB0A9B2B1A6C9A2B3A129B853C126E
:10023300BB3BBB5C5C025B027B543B43BA0A7A1256
:100243009A129B12BB12BB12BB12BB12BB12BB1284
:10025300BB12BB12BB12DB12DA12DA12DA12FA1A6F
:100263009610E408610862086108410841086110BA
:100273008208610861086108611062086108411021
:100283006210620841084108410841086110821860
:10029300C318A30861086218A318C42146426C421C
:1002A3008C320939E9292641E84186398639C73133
:1002B3006629242124210410621082108210A321B4
:1002C300052125190418E408830862084208620816
:1002D30062086210A318E418C339C86ACC62ED4AF5
:1002E3008B4A8A31A729662946190921CF19F112A8
:1002F300B912D802786C9B8D1B025B12BB337B0A4D
:100303007C231B649B12BB749B2B7A0A9B12BB0A34
:10031300BB12DA023A6CDA43BA025A3B9B437A02C3
:100323003B4BDA853C335B129B5C1B129B12BB126B
:10033300BB12BB12BB129B12BB12BB12BB12BB1272
:10034300BB12BB12BB12BA12DA12BA12DA12DA19E0
:100353008C08810882086208410842084108410864
:100363004108610861086108410861108208620858
:100373006108410841084108410841084108410812
:10038300610861108218E4290529A8320A39E9397C
:10039300A73A09318739C8522849C73186294531D7
:1003A300252945294518C318A318A218C4190518E7
:1003B300E42125210410A31083086208620862085F
:1003C30082212521042125190421454229630D5247
:1003D300AC424A422921252145214819F321D01253
:1003E3007612D902786C9B851B025B129B5C1B33D4
:1003F3005B647B749B4BFB84FB2B3A43DB7CFB4CA6
:100403001C647B6CBB333C6C9B3B7A6C9A335B43C5
:10041300DB9D9C643A53FA439A645B335B0A9A12FA
:100423009B129B129B129B129B12BB12BB12BB1201
:10043300BB12BB12BB12BB12DA12DA12DA1A321077
:10044300C308620862084210620862086208611009
:10045300821062086108410861106108610841085F
:100463004108410841084108410841084108410841
:100473004110A218C318C321043165316639C8423B
:100483000939A73145520652074186314539653945
:1004930086314528E420E320E4294529862966217D
:1004A300451904210418C308620862086208420857
:1004B3004218C339C7422839E819042966424A5207
:1004C3008B39E839C8316518A319071A1321F11AB2
:1004D3003512D902796C9B853B025B2B3B645C74C0
:1004E300DBAE1C335B333B4BDC5C5BB65B955B5C2D
:1004F3005B9D9A7D1B0A9C025B439B953A541A535E
:10050300DC6C59021A3B7B84F98D59541B0A7B120C
:100513009A129B12BB12BB129B12BB12BB12BB12D1
:10052300BB12BB12BB12DB12DA12BB2278192810E2
:10053300830883086208621082106210A310820885
:1005430061084108610861084108610861086108A0
:1005530041084108410841084108410861108218D7
:10056300C318A3188218C329243965422A4A4B5257
:100573004949C65A276A475A2851C649A641C72935
:100583004528E4312441C7528B42493A2929A729F6
:1005930086190418E418C408620842106208620845
:1005A30042084121044A695ACB3A0818E42105421A
:1005B3004A528B3186294518A310A419F11A321A0D
:1005C3003312B802796C9C853B023A647A43BB547C
:1005D3001B7CDB4BFA4BFC6C9B8D5CA5FC4B7B9D26
:1005E3007C6CBC6CBC12DA0A7C647A3B7B025C1ABE
:1005F300DB6CBA4BFA5C1A84FB6CBC3B9B0A7B1228
:10060300BB12BB12BB12BB12BB12BB12BB12BB127F
:10061300BB12BB12BB12BB12DA1ABB19F21083084E
:1006230083088208620882108210A210A20861085F
:1006330041084108610841086108410861086108EF
:10064300610841084210821062106210822104186E
:10065300A3106220A328E431454209528C5A8A62CE
:10066300896AA972C972CA62896A475208396639A6
:100673002541A65A48734C632C5B0C5AEC428A29D9
:10068300A7212518C4108208620862086218C310E3
:100693008310A3210439E752AA4A6A21462105316E
:1006A3008639E839C829452104108219AF1A341A4A
:1006B30033127802796C9C853B025B231B5C9B5451
:1006C3001B0ABB1AFB439C2B1B6C9B1AFA12FB33B2
:1006D3005A0A9A337A12BB0ABC2B3A12BB129C0AEF
:1006E3007B231B3B7C129B0A9B1ADA2B1A0A9B1255
:1006F3009B12BB12BB12BB12BB12BB12BB12BB12AF
:10070300BB12BB12BB12BB12BA1A9818E7088210AD
:10071300A308820862088210A310820841086108B6
:1007230041084108410841108208410861086108F5
:10073300611062108310831062108318C318C318EA
:10074300A228E32904310541A75AAB6AEC734D7320
:100753002C7B0B7B2A72E97288624841A651E751D0
:10076300E76AA98BAD8BCE6B2B6B4C6B6D52CB3980
:10077300E818C410A3108208620862084210A32973
:100783002518C4212429664A8A52AC31C721253150
:10079300E93187294618E418E418E3198C1A551A25
:1007A30013127502786C9C853C027B0ABC0A9B0A77
:1007B3009C12DB12BC6CBA5C5A3BDB12DC337B2B26
:1007C3005B335B335B2B3B233B2B5B335A2B3B333F
:1007D3005B43DA2B5B22FA335A339A12BB12BB12F6
:1007E300BB12BB12BB12BB12BB12BB12BB12BB129E
:1007F300BB12BB12BB12BA12DB19CF108210A308B3
:100803006208620862086210821082084108610867
:100813004108410841084108410861106208610824
:1008230061108210621061188218A220A328C328C5
:10083300E328C331244A0862AA72EC732C7B2C7B15
:100843002B832A83097AC85A4851E7622862488B66
:100853006CAC70AC709C0E8BAD6B0B5AAA52AA4A4F
:100863006A294618C41083088218A3108310A32191
:10087300043166292410C3296652CC426A214529D2
:1008830087422A298718E418C318A318E71A551AA8
:10089300341A5502786C9C853C025B12DC12BC1244
:1008A300BC12DC0ADC231B337B0A9C2B7B8D5C6C28
:1008B300DC751C751C6CBC43BA857B7D3B74FA6488
:1008C3007B647B541B647B6C9A7D3B22FB0ABB12CB
:1008D300BB12BB12BB12DB12BB12DB12DB12DB122D
:1008E300BB12BB12DB12DC1A7718E61083088208EE
:1008F3008208821082084208620861084108610880
:10090300410841084108410841086108410841087C
:100913006210621062188228E328E328C328A32800
:10092300E33924520862896ACA6AEB7B0B832B8BF7
:100933004B8B8B830A62485A286A897AEAC4B1E5E9
:1009430095DD75CD13B490BCB1A44F72EA62AA527F
:100953006939A7290518A3108218A3212518C329CB
:10096300453185422718E3086229A7424A31A7295E
:100973006631E931A7214520E418A418E51A131AB2
:1009830056225502996CBC853B025B12BC12BC1209
:10099300BB12BC12BC0ABB0ABB12DC12BB1AFB1291
:1009A300BB1ADB12BB1AFB3B9B1AFB1AFB1B1B1A62
:1009B300DC129B12DB1AFB12BB12BB12DB12BB1243
:1009C300BB12BB12BB12DB12BB12DB0ADB12FC1223
:1009D300DB12DB12DB1ABB21AF10A3108310A310B1
:1009E30083086208620842086208610861084108D6
:1009F300410841084108410841084108411062107B
:100A030082106220A330E428E420C320A3310441F0
:100A13008651E7626862CB6AEB836B8B6B93AD9312
:100A2300AD732B5A686A487A889B8CDD74F618EE8E
:100A330017E5F6DD54CD12CCF1BC909BED72EA5A6A
:100A43002841A63125290518C418E4294629463129
:100A53008731A55248420721042105424A298629A4
:100A63008731E939C82146210418C418C521F11A70
:100A7300961A7402B96CDC8D1B025B12BB12BC129A
:100A8300BC12BC12BC12BC12BB12DB12BC12BC12D5
:100A9300BC12BC12BC129B0A9B12BB12BC12BC122E
:100AA300BB12BB129B129B12BB129B12BC12BC1239
:100AB300BC12BC12BC12BC12BC12BB12DB0ADC128D
:100AC300DB12BB12BB227719271083088310831014
:100AD30082086208620842086210610841084108FE
:100AE3004108410841084108410841106210821839
:100AF3008218A2310430E420A320A3390549865A81
:100B03004862696289730C834C93AC8BAD8B8D7394
:100B13000B526972C98309B44FEDF7F658F658F6CC
:100B230058EE37E5D5E594DD52BC8FA3EC938B6289
:100B3300A8520741863145292529462125316631A9
:100B4300A731A74A284A2821451904318739E729BB
:100B53008729CA298718E4210418C418A3198E12F7
:100B6300971A5402796CBC8D1B025A12BC12BC1228
:100B7300BC12BC12BC12BC12BB12BB12BB12BC1205
:100B8300BC12BC12BC12BB12BB12BB12BC12BC12F5
:100B9300BB12BB12BB12BB12BB12BB12BC12BC12E8
:100BA300BC12BC12BC12BC12BC12DB12DB0ADC127C
:100BB300DB12BB1ABB21CF10C3108310A410830810
:100BC300420842086210620862084108410861084D
:100BD30061084108410841086110621082188218B7
:100BE300A328E428E428C330E3414551A6624862C0
:100BF300686AA97B2C8B6C836C832B7B0B734C6295
:100C0300CA7B0AA3CDCD13F679F699F699F679F650
:100C130078F637EDF6EDD5E593BCB0A3EC9BED8B01
:100C23004B624851C641862904290529252965397E
:100C3300E839E94A695ACA31C8190410C329653128
:100C43006629A8214618C418C418C418A319291A58
:100C5300751A5502786CBC8D3C025B12DC12BC1217
:100C6300DC12DC12BC12BC12BC12BC12BC12BC12D1
:100C7300BC12BC12BC12BB12BB12BB12BB12BB1206
:100C8300BC12BB12BB12BB12BB12BB12BC12BC12F6
:100C9300BC12BC12BC12BC12BC12DC12DC12FC1261
:100CA300DB12DC1A771105108310A310A308420886
:100CB300620862086208620841084108411082081C
:100CC300610861084108411061108218A310622075
:100CD300C320C328A3390449455A0762276A6872A7
:100CE300A97B2B7B0A7AE9830A836C7B6D6AEB838E
:100CF3002CAC50D554FE79FE79F69AF69AF69AF60C
:100D030079F658EE16EDF5E594CD11B44EA3CC9BD0
:100D1300AC7AAA5A2849A639862105316629454164
:100D2300E839E952CB6B4D4A8B18E410C318C33131
:100D3300862947190518C418E418C418A318E61A15
:100D4300351A5702786CBC853C027B12BC12BC126C
:100D5300BC12DC12DC12BC12BC12BC12BC12BC12E0
:100D6300BC12BC12BC12BB12BB12BB12BC12BC1213
:100D7300BC12BB12BC12BC12BC12BC12BC12BC1201
:100D8300BC12BC12DC12BC12BC12DC12DC0ADC1278
:100D9300DB1ABC218D0862088318C310621082100D
:100DA30082086208620842086208610861108208CA
:100DB3004108410841108210821082106218A32852
:100DC300C328C3412451A6622862276A677AEA834B
:100DD3004B7AE97AE98B6A8B8C732C6AEB8B6DB453
:100DE30050DDD6F679F679FE7AFE9AF69AF69AF6F9
:100DF30059F638EE17EDF5E5B4DD53CCF1AC0D9BA8
:100E0300AC8B2B6AA9520741C73967290541C73102
:100E130086426B3A2A5B0E5B0D298610A31082294A
:100E230045294718E510A410C318C4188310C61920
:100E3300F31A5702586CBC853B025B12DC12DC12BE
:100E4300BC12BC12BC12BC12BC12BC12BC12BC122F
:100E5300BC12BC12BC12BB12BB12BB12BC12BC1222
:100E6300BC12BC12BC12BC12BC12BC12BC12DC12EF
:100E7300BC12DC12DC12DC12BC12DC12DC12DC123F
:100E8300FC1A7818C510A310C41082108310A3088D
:100E93008208420841086208620861086108410843
:100EA3004108611082108210621061188228E330B9
:100EB300E3412551A65A0662476A887AE97B0A6AA2
:100EC30088830993AB836B62AA6ACA938CB4B1E536
:100ED300D6F658F679F679FE7AF69AF69AF699F6F0
:100EE30059F638F637F616EDF5ED94DD32BC6FA3FF
:100EF300EC938C7B0B5A4849E74A292925318642D2
:100F0300083A093A4B4AAC5B0D3A0818E410A22997
:100F130045296718E518E5108318C320E410C419A0
:100F2300D01A780A586CBC8D1B025B12BC12DC12FF
:100F3300DC12BC12BC12BB12BB12BB12BC12BC1221
:100F4300BC12BC12BC12BB12DB12BB12BC12BC1211
:100F5300BC12BC12BC12BC12BC12BC12BC12BC121E
:100F6300BC12DC12DC12DC12DC12DC12DB12DB1230
:100F7300FD19CF086210A410A410A4088308620806
:100F83006208410861086208620861084108410873
:100F9300611082108210821062188328C330E349E3
:100FA3008562286A886AA772C87AE972C96A678300
:100FB3002A9BCC834A62AA6AAA8B8CBCD2E617F618
:100FC30078F679F679F679F69AF69AF69AF699F624
:100FD30079F658F637F616EE16EDD5E593CCD0B480
:100FE3004E9BCD8B6B6AA941E74A6A4A4A20E44A81
:100FF3004A31C83A4B3A2A4AAC424A31A7108218BE
:10100300A321251905192518C410A318A418A31979
:10101300AE1AB802586CBC8D3B025B12BC12DC12D8
:10102300DC12BC12BC12DB12BB12BB12DC12BC12F0
:10103300BC12BC12BC12BB12BB12BB12BC12BC1240
:10104300BC12BC12BC12BC12DC12BC12BC12DC12ED
:10105300DC12DC12DC12DC0ADC12DC12DB12FC1AFE
:10106300BA10E610A310A410A3086208420862088D
:10107300621062108208610861086108410861100A
:101083008210620861106218A220C3310449A65A73
:101093004872C97AE983297B096A8872A88B6B9B9A
:1010A300EC7AE96248628893ADCD13EE37EE58F6D9
:1010B30078F679F679F69AF69AF69AF69AF699F612
:1010C30079F678F658F637F636EDF5E5D4DD72C4E1
:1010D3008FA40D9BAC7B2A4A0839C74A6A21053184
:1010E300874A4A31E93A2A424A424A318620E31082
:1010F3008218E4086218E418E4108218A318C419CB
:101103008D1A980A586CBC853B025B12DC12DC1208
:10111300DC12DC12DC12DC12DC12DC12DB12BB127E
:10112300BB12BC12BC12BC12BC12BC12BC12BC124D
:10113300BC12BC12BC12BC12BC0ABC12DC12DC1204
:10114300DC12DC12DC0ADC12DC12DC12DC0B1C1AF3
:101153003310A410A310830862108310820842087E
:1011630062108208610861086108610861108210D9
:1011730082084110621082188228E349E762887B63
:101183000983098B2A832A6A677B0993CBA3ED7AA8
:10119300C962276247938CCD53EE17EE58F658F683
:1011A30079F679F69AF69AF69AF69AFE9AFE9AFEE6
:1011B30099F679F678F657F637F616EDF5E5B3D5E1
:1011C30011B44EA3AC8B6B5A68398639C741E821F9
:1011D30005424A3A093A09424A3A0921452124106B
:1011E3008220E4084110A318C4106210A318C31985
:1011F3008D12780A586CBC853B027B12DC12DC1220
:10120300DC12DC12DC12DC12DC12DC12DC12DB126C
:10121300BB12BC12BC12BC12BC12BC12BC12BC125C
:10122300BC12BC12BC12DC12BC0ADC12DC0ADC0AE3
:10123300DC12DC12DC12DC12DC12DC0AFC12FC19FC
:101243008C10A310830862106210A308620842087E
:101253006210820861084108611082108210A21096
:101263006110821082188220A2290452287B0B7BF2
:10127300098B4A830972A88B2A9BCCA40D830A622B
:10128300686A688B6CD574EE17EE37F658F679F604
:1012930079F699F69AFE9AFE9AFE9AF69AF69AFECD
:1012A30099F679F678F658F657F636EDF5E5D4DD86
:1012B30073CCD0ABED8B8C62A939862945422929A1
:1012C300452966422931C739E84A8A296610A2109E
:1012D300822104086210A318C40862108310A219A3
:1012E3008C1A7702786CBC853C027B12DC12DC1210
:1012F300DC12DC12DC12DC12DC12DC0ADC0ADC0A93
:10130300DC12BC12BC12DC12DC12DC0ADC0ADC0AC2
:10131300DC12DC12DC12DC12DC12DC12DC12DC0A62
:10132300DC12DC12DC12DC0ADC0AFC0AFC1A991956
:101333000710A30883086208620862086208621043
:1013430083086208410841106210A21082086110EC
:101353008218A228E328E320C32104396562488365
:101363004B7AEA72A893AC9BCCA40C7B0A626862AA
:101373006893ADDDB5EE17EE37F657F658F679F606
:1013830079F699F67AFE9AFEBAFEBAF69AF699F6C5
:1013930079F679F678F658F657F636F615EDF4E55C
:1013A30093D511B44E93CD6AEA318620E429863170
:1013B300A718A339C739E72965424931A71082081D
:1013C3006120E4108210A318E41083084218A219C4
:1013D3004B1A5502996CBC853C027B12DC12DC1261
:1013E300DC12DC12DC12DC12DC12DC12DC12DC128A
:1013F300DC12DC12BC0ADC12DC0ADC0ADC0ADC12BA
:10140300DC0ADC12DC12DC0ADC12DC12FC12DC1259
:10141300DC12DC12DC12DC0ADC12DC0AFD1A131803
:10142300E510A3086208620862086208621082106D
:101433008208420841086210821082086110621813
:101443008320C3394451E74165290320E3316562B1
:101453008972A993AD9BEDA42E830A6A686A689387
:101463006CD594E616EE17EE37F638F678F679F67D
:1014730079F69AF69AFEBAFEBAFEBAF69AF69AFE8A
:1014830099F679F678F657F657F657EE16EDD5E551
:1014930094DD32BC8F93EC732C41A718C421253102
:1014A30087210421043186292539E731A618C30889
:1014B3006118C310831082292510A30862188219AA
:1014C3006A1A7502986CBC853C027B12DC12DC1232
:1014D300DC12DC12DC12DC12DC12DC12DC12DC1299
:1014E300DC12DC12DC12DC0ADC12DC12DC0ADC0AA1
:1014F300DC0ADC0ADC12DC0ADC0ADC12DC0ADC12A1
:10150300DC12DC12DC12DC12DC12DB12DB218D19A3
:10151300061084106208620862086208621082087A
:101523006208410842106210621082108210822009
:10153300A339656A897B2A72EA5A07312428E44170
:10154300867B2B8BAC9BED7B0A6A886A88938CDD48
:1015530054E5B5E5F6EE17EE37F658F678F679F674
:101563009AF69AFEBAFEBAFEBAFEBAFE9AF69AFE48
:1015730099F679F658F657F657F657F636EDD4E559
:1015830094DD52C4B093CC732C422818C410A31812
:10159300E4212518C4210529052945212518C3104F
:1015A3008210A310A3106218C418C4086210832108
:1015B300481A5402B964BC853C027C0ADC12DC1272
:1015C300DC12DC12DC12DC12DC12DC12DC12DC12A8
:1015D300DC12DC12DC12DC0ADC0ADC0ADC0ADC0AC0
:1015E300DC12DC0ADC12DC12DC0ADC0ADC0ADC12A8
:1015F300DC12DC12DC12DC12DC12FC1A792148103A
:10160300C41083106208620862108210A31082085B
:1016130062084108621062108210821082188218D8
:10162300A331455207730A8BAC834B620749653973
:10163300455A48836C72A95A076A888B2AD532DDCA
:1016430094E5D5EDD5EE16EE17F658F679F679F65C
:101653009AF6BBFEDBFEDBF6DBFEDBFEBAFE9AF69A
:1016630099F678F678F658F657F657F616EDD4E568
:1016730093DD52C4D09BED6B2B4249212510A3105F
:10168300A3210420E418E4210431452945108210E4
:101693008210A310A310A308620862086210A419A1
:1016A300291A5302BA6CBC853C027C0ADC12DC1298
:1016B300DC12DC12DC12DC12DC12DC12DC0ADC12BF
:1016C300DC12DC12DC0ADC0AFC0AFC12DC12DC127F
:1016D300DC0ADC12DC12DC12DC12DC0ADC0ADC0AB7
:1016E300DC12DC12DC12DC12DB12FC1A5619261097
:1016F300C40862106210821082108310A30862086B
:10170300420862106110821082108218A210822196
:101713000420E339656289838E93CE72C95A0639F0
:101723006549E662685A0662278B4BCCF1DD53E5C7
:10173300B4E5D5E5D5EDF6EE17F658F679F69AF653
:10174300BBFEDCFEFCFEFCFF1CFEFCFEDBFEBAF671
:1017530099F698F678F678F657F637EDF5EDB4E5A1
:1017630073D531C4B093EE6B4C4A49214518E4104C
:10177300A31904210529462945290429451062088E
:101783004118C3108318A3086210A310A310A4194F
:101793002A1A5402BA6CBC8D3C027C12FC12DC1275
:1017A300DC12DC12DC12DC12DC12DC12DC12DC12C6
:1017B300DC0ADC0ADC0ADC0AFC0AFC12DC12DC129E
:1017C300DC0ADC12DC12DC12DC12DC12DC0ADC0ABE
:1017D300DC0ADC12DC12DC12DC12DC1A54214710A6
:1017E300A4088210831082108210830862084208C2
:1017F30062108210821082108220C320E34A8A4A38
:101803006A10A218E331656B4D730B834B72C95198
:10181300C551E659E661E682EABCB0CD12DD73E557
:10182300B4E5D5E5D5E5F5EE17F638F659F679F6CC
:101833009AFEDBF6FCFF3DFF5EFF3DFEFCFEDBFE9A
:10184300BAF699F698F678F657EE36EDF4E5B3DD89
:1018530073D4F1BC908BEE6B4D526A29662125102F
:10186300C419042105212520E420E4316518C308A7
:101873004118A310831082108310A408A3108419A5
:101883004B1A3302BA6CBC8D3C027B0ADC12DC12AD
:10189300DC12DC12DC12DC12DC12DC12DC0ADC12DD
:1018A300DC12DC0ADC0ADC12DC12DC12DC12DC12D5
:1018B300DC0ADC0ADC12DC12DC0ADC0AFC0ADC12BD
:1018C300DC12DC12DC12DC12DC1ABB2212214818F7
:1018D300A4108310A3108210821083086208621080
:1018E3008210821082108220E4396541E773D1317E
:1018F300C8186208624A494A4962CA836D7B2B6AE7
:101903004759E659E67AE9A42EC4B0D512DD74DD51
:1019130094E5B5E5B5E5D5E5D6E5F7E618EE38EE99
:1019230058EE79F69AFEDCFF3DFF5EFF3EFEFCFEBD
:10193300BBFE99F679F678F657F615EDD4E593DD07
:1019430052CCF1B48F8BCE632C424A2987190519E7
:101953000519052125210420E420E4290418C308DE
:101963004118C41083108310831083088210A521AB
:101973008C1A3202DA64BC8D3C027B0ADC12DC1264
:10198300DC12DC12DC12DC12DC12DC12DC0ADC12EC
:10199300DC12DC12DC0ADC12DC12DC12DC0ADC12E4
:1019A300DC12DC12DC0ADC0ADC0ADC0AFC0ADC12CC
:1019B300DC12DC12DC12DC12BB1A9A22142148104E
:1019C300C310A410A3108310A31082086210821006
:1019D30082108210A220C341C65228624883AF3AC4
:1019E30009002108413966290441C7730C83CE6A73
:1019F300A8622672888B8CA44EBCB0CD12DD73DD39
:101A030094DDB4DD94DD94CD54C514B492B4B2B472
:101A130092B4D2C535D596EE39F6BCF71DFEFCFE61
:101A2300DBF69AF679F658F636EDF5E5B4E573DDAF
:101A330032CCD0B44F8BCD630C424A29872167291E
:101A430067212618E4210418E418A320C320E41016
:101A53008220E41062106218A30862106319072140
:101A63008B1A5402BA6CDC8D3C027C12FC12FC1201
:101A7300FC12DC12DC12FC12FC12FC0ADC0ADC0A8B
:101A8300DC0ADC0ADC0ADC0ADC0ADC12FC0ADC12F3
:101A9300DC12DC0ADC12DC0ADC0ADC0AFC0ADC12DB
:101AA300DC12DC12DC12DB1ABA12DB2275214808C5
:101AB30082108310A318A310A31082108218A310FE
:101AC300A218C320E341C652276ACA72A9832B6AAC
:101AD300CB290429043145530D7C1162CB7B6D72F4
:101AE300C972A87AEA8BACAC4FC4D1D533DD74DDAF
:101AF30094DDB4D573C512B49193CE730B72EB62BC
:101B0300AA62AA6ACB730C93AFA431B4D4C535D5FA
:101B1300B7E639F659F658EE36EDD4E593DD52D5EE
:101B230012C4D0AC4E8BCD5AAA3A0929A7298721D2
:101B3300462146212510A3292518C420C318C31004
:101B43008218C31083084210A3108210A5194A19E2
:101B5300481255029A6CBC853C027C12DC0AFC0AD2
:101B6300FC12DC12DC12FC0AFC0AFC0AFD0AFD0A68
:101B7300FD0AFC0AFC0AFD0ADD0AFD0AFC0AFC0A4E
:101B8300DC0ADC12DC12DC0ADC0ADC0ADC0ADC120A
:101B9300DC12DC12DC12DB12BA1ADA2277194810D3
:101BA3008310A3108318A310831062108218821865
:101BB300C22904522862A86ACA7B4B83AD8BAE8BC1
:101BC3008E7B4D834D83D0B5999CD45A4893CF8354
:101BD3006C72E972EA93ADB490CD12D573DD94DDE6
:101BE300B4DDB4D553BCB0A42E93AD8B8D7B0B6AFF
:101BF300CA5A895A4849E852495A4972CB72EC7B0E
:101C03002D93F0C514E5F7EE16E5D4DD73DD52D55B
:101C130012C4B0AC2E838C5AAA31A7298729A821D4
:101C230066212521460862212520E418A318E31024
:101C3300A210A310A3086210A3108218E7196A194F
:101C430029129702B96CBC853C027C12FC0AFC0A7F
:101C5300FC12DC12DC12FC0AFC0AFC0AFD0AFD0A77
:101C6300FD0AFC12FD0AFD0ADD0AFD0AFC0AFC124C
:101C7300FC12DC12DC0ADC0ADC12DC12DC0ADC12E9
:101C8300DC12DC12DC12DB12DB12DB22361906104B
:101C93008310A318C418C41082106218C220C32969
:101CA3000449E8730B838C8B8D8BAD93CE9C0F9C77
:101CB30030A430B471B4D4AC51834C6207AC929469
:101CC3000E7B2A7B2A9C0EBCF1D574E5B5E5D5E5E0
:101CD300D5DD94D533BCB0B46FAC4FA42FA40E9B09
:101CE300CD93AD9BCD93AC93ADA410B472B492AC31
:101CF300728B8E7B4DA450DD95E594DD73DD53DD52
:101D030032CCF0B46E836B526931A72987298721BE
:101D13004621462125106218C318E418A318C310DE
:101D23008218A318A310621062084110E6198B19D8
:101D33004B0AD902B96C9C853C027C12DC12DC1282
:101D4300FC12DC12DC12FC0AFC0AFC0AFC0AFC0A88
:101D5300FC0AFD0AFD0ADD0ADD0AFD0AFD0AFD0A89
:101D6300FD0AFD0ADD0ADC12DC12DC12DC0ADC0AE5
:101D7300DC12DC12DB12DB12DC12DA223221271036
:101D83008310A4210518C41062108218C328E349E4
:101D9300E8628A8BADA42EA40F9C0F93EE8BCE9C8E
:101DA3000FA450AC71B4B3A452A451938DB4B294A4
:101DB3000F7B4B8B6CAC90CD73E5D6EE37EE37EDE6
:101DC300F6DDB4CD32C4AFBC6FB44EAC4EAC4FB441
:101DD3004FBC90C4D1CD12D533DD74E5B6EDD7EE4B
:101DE30039DDD7BCB38B6DA430D574DD73DD53D52A
:101DF30032D511BC6F834B52283166298829872934
:101E03006731A8294618A310A318C418A318C31030
:101E13008210A3292510820862084210C621AD1141
:101E23006C0AFA02B96CDC853C027C12DC12FC12EF
:101E3300DC12DC12DC12DC0AFC0AFC0AFC0AFC0AD7
:101E4300FC0AFD0AFD0AFD0ADD0AFD0AFD0AFD0A78
:101E5300FD0AFD0ADD12DC12DC0ADC12DC12DC12E4
:101E6300DB12DC12DB0AFC12DB1A782A33190710A7
:101E73008318C4210518E4106218A3290439865A6B
:101E83006A832BAC2FB490B491AC509BEF9C0FA4FE
:101E930050A450A430A451AC71AC51AC71AC71934B
:101EA300CE8B6C9BEEC512DDD6EE78F699F678EE06
:101EB30017DDB4CCF1BC6EAC0DA3ED9C0D9BEE9B7A
:101EC300CEA3EEBC91D533E595E5B5EDD6EDF7F6AA
:101ED30039F659EE18C51493AEC4F2D573D532D57D
:101EE30032D532BC90836B4A28292521462987198C
:101EF3000531A7292610A310A318C318A318C310CC
:101F030062108220E410A21082086210C6198C119C
:101F1300D00B1A02B96CDC853C027C12DC12FC1279
:101F2300FC12FD12FD12FC0AFC0AFC0AFC0AFC0A64
:101F3300FC0AFD0AFD0AFD0AFD0AFD0AFD0AFD0A67
:101F4300DD0ADD0ADC12FC12DC0ADC0ADC12DC121C
:101F5300DB1ABB12DC12DC1A9A22582A1318C41893
:101F6300A318E5210518E410822905394552086AAA
:101F7300CA9BACBC50C4B1C4D2B471AC70B491B4FC
:101F830091AC91AC72AC92A492ACD3ACB2A4708B72
:101F9300AD93ADB490D594EE58F6FBF6DBF679EE3F
:101FA30037DDB4C4D0AC0D9BAB938C832B7AA97271
:101FB300A972A9832BA3EFCCF2E5B5EDF6EDF7EE0D
:101FC30018F638F638E5D7C4F2B490CD12D552DD01
:101FD30052D532C4B0836B41C720E310C42105201E
:101FE300E4210529261082108218C318A318A31010
:101FF3006210A318A310821082084110A5196A1A4F
:10200300550B1A02B96CDC853C029B12DC12DC1204
:10201300DC0AFD0AFD0AFD0AFC0AFC0AFC0AFC0AAA
:10202300FC0AFC0AFC0AFC0AFC0AFC0AFC0AFC0A7D
:10203300DC0ADC0ADC12DC12DC0AFC0AFC12DC120D
:10204300DB12DB12DB1A9A22571A752A1119271889
:10205300C318C410A318C32104290439666A8A8BE0
:102063004BABEDBC6FC4D1C491BC91C4D2BCD2BC48
:10207300F2BCF3B4B2ACB2BD14ACD2A47093EE8B89
:102083008CA3EDC512E616F6DBFEFCFEBAF699EE5E
:1020930057E5B4C48EA3CB8B4B7ACA62285228313E
:1020A30085292441A7732F9412A3F0D534EDD5EDE0
:1020B300F6EDF7EE18E5F7D595C512CD12D552DD3D
:1020C30052D532C4B0834A3145108318C421452107
:1020D3000418A419051061108218C318C321041031
:1020E3008218C318A31083086208421083196D1263
:1020F300FA0B1A02BA6CDC853C029B12DC12DC126E
:10210300DC0AFD0AFD0AFD0AFC0AFC0AFC0AFC0AB9
:10211300FC0AFC0AFC0AFC0AFC0AFC0AFC0AFC1284
:10212300FC12DC12DC12DC12BC12DC12DC12BB1A55
:10213300BB12DB1ABB1A782278227721CE2105182D
:10214300A310A318C421042924314549E87AEB9B41
:102153008CB3EEC490C490C471C4B2CCD2CD13CDB1
:1021630033BCD2BCD3BD13BCF2AC709C2E8BAD93ED
:10217300ACB48FDDB4F679FF1CFEDBF699F699EE6D
:1021830077DDB4C48EA3AB82A9726A5AAC5B0F210C
:10219300050041210552AB39C75AAB834DC4B1E5A4
:1021A300B4E5D6EDD6E5F6DDB5D553D532D552DD5A
:1021B30052D532C4B07B09292510621083294618F1
:1021C300E418A418E4086110A318C320C318C308B3
:1021D3006110A318C318A308620861108312550B7A
:1021E3001A0AF902BA64DC853C027B12DC12DC12A7
:1021F300DC12DC12DC12DC0AFC0AFC0AFC0AFC0A14
:10220300FC0AFC0AFC0AFC0AFC0AFC0AFC0AFC1293
:10221300FC12DC12DC12DC12DC12DC12DB1ABB1A3D
:10222300DC1ADB22982276223421CD29AB21261019
:10223300A310A321042945312441866ACB8B0BAB20
:10224300ADBC0EC44FC470CCD2CCF2D513D513C4DD
:10225300F2C513C514BCF3AC909C0E93CD8BACA408
:102263000EC511E616F6DAFEDBF6BAF6B9F699EE06
:1022730058DD93C4D09B8C8B0B82CB8C757C54180C
:1022830082084118E32125294641E9526972CBBCF2
:10229300B0DD74E5B5E5B5DD94D573D553DD52DD19
:1022A30052D511BC8F6AA918A30842086218C31833
:1022B300A3108318E4086210A318A318A318A30893
:1022C3006110A318C418C308620862110812FA0A3D
:1022D300FA0AFA02BA64BC853C027B12DC12DC12F5
:1022E300DC12DC12DC12DC12FC0AFC0AFC0AFD0A1A
:1022F300FD0AFD0AFC0AFC0AFC0AFC0AFC0AFC12A1
:10230300FC12DC0ADC12DC12DC0AFC0AFC12DC1A0A
:10231300B922342A11225321F12A342A31214718B0
:10232300A318C3316631453125520872AA934BABCA
:10233300CDBC0EBC0FCCB1D4F2D513D4F3CCD2CDDB
:1023430013CD33C513B4919C2F93CD8B8C93CCB405
:102353006FDD73F678FEDAFEBAFEBAF6DAF6DAEE77
:102363007ADDD6CD34AC919BAD934CA4729CF631FF
:10237300E9086220E418E46BB28CB6296652288B14
:102383000BCCD1DD53DD73D574D574DD73DD73D51B
:1023930052CCF1B46E52471062084210621083109F
:1023A30062106218A3106210A318A3108218A3105E
:1023B30061108218C418A308820841116D131B0A07
:1023C300F90B1902BA64DC853C027B12DC12DC12C5
:1023D300DC12DC12DC12DC0AFC0B1D0B1D131D13BB
:1023E3001D131D131D131D0AFD0B1D0AFD0AFC0AF7
:1023F300FC12DC12DC12DC12BB12BA1A9822341A59
:1024030012225522992A78229722972A5021471877
:10241300C429253186316641A762897ACAA38CB360
:10242300EEBC0EC44FD4D1D4F3D513CCD2D513D52F
:1024330033CD12BCD1A44F8BCD8B8C8B8CA40DCC04
:10244300F0EDF5F6DAFEB9F699FEB9FEFBFEFBF602
:10245300DBE67AD5B7BD15B492A4319BAFA4319412
:10246300315249528B7C54BE3DA539628A49A682BA
:10247300EBB42ECD11D553DD73DD94DD94DD73D52F
:1024830032CCD1A40D39A50842084108421082106C
:102493006208621082106218A318C318A320E41004
:1024A30062108218C418A31082084119F10B1A0A8A
:1024B300FA0B1902BA64BC8D3C029C12FC12DC12AA
:1024C300DC12DC12DC12FC0AFD131D131D133D1379
:1024D3003D133D131D133D0B3D133D0B1D131D0AF2
:1024E300FC0AFC12DC12DA1AB91A981AD912FC1A6D
:1024F300FC22DA2279227622B722B72A0D2105217E
:1025030024210439A739A752286A89932BA38CABBA
:10251300CDBC0FCC70D4B1D4F2D4F3D533DD33D5E5
:1025230033C4F2B4709BEE838C8B6B9BCDBC6FDD9D
:1025330073F678FEFBF6B9F698F6B9FEFBFF1CF7C7
:102543001CEEDBDE19CD77BCF5B493B493BCD4B4E5
:1025530072B492C556D5B7C4F3ABEF8B2C7B0B9BF0
:102563006CB44ECCF1DD53E594E594E594DD74D57C
:1025730032CCB18B8C210408210821084110A3100F
:10258300831062108308421082108310822104108A
:1025930082108318E41083108210A412940B1A0A79
:1025A300F90B1A02D964DC853C029C12FD12FC1261
:1025B300FC12DC12DC12FC131D131D131D133D133F
:1025C3003D133D133D133D133D133D0B1D131D12D1
:1025D300DC12DC12DC12DB12DC12FC12FC1ADA2A2B
:1025E3007822B922B82AD822B62A52320B29462198
:1025F300042925422A41C852286A89932CA36CAB2B
:10260300CDC42FCC70D4B1D4D2D513DD54DD34D5A1
:1026130013C4D1A42F8B6C834B938CAC2ECCF0EED4
:1026230016FEDBFEDAFE98F698FEB9FEFBFF1CFFF2
:102633001CF6FCEE7ADDF8CD77C515B4B4B4B4C599
:1026430035D5B8CD55D556CD14BC92A3EFA3EFAC79
:102653000FC4B1D532E594E594E594E594DD73D5E3
:1026630032BCB06ACA10A308410821084218A31853
:10267300A3106210830841108218C4108218C3107B
:1026830062108320E418A310A210E612B70B1A0BF2
:102693001A0B1A02D96CDC853C029C12FD12FC1247
:1026A300FD12FD0AFD12FD0AFD0B1D131D133D1343
:1026B3003D133E131D131D131D131D131D131D0A5F
:1026C300FC0B1D0B1D0AFD12DC12DB1ABA22981A31
:1026D300D822D922D82AB42A522A2F2A0A294618BC
:1026E300E33187424A4A085A077ACA934CA36CAB30
:1026F300CDBC2FCC70D4B1D4F2DD33DD53DD54CD5A
:1027030013B49093AD832B8B6BA40DC4AFDD93F601
:1027130078FEDAFEB9FE98F6B8FED9FEDAFF1CFFA2
:102723003DFF3DF6BCE639DDD8D576C515C4F5CDFC
:1027330014D555DDB6E596DD96DD75D575DD95DDEC
:1027430075DD74E594E5B4E5B4E5B4DD94DD53CC0F
:10275300F2AC6F52491083004108410841108210C6
:102763008310621083084218A318C318C310A31060
:102773006210A318A31083088210E612D90B1A0A59
:10278300FA0B1A02BA6CDC8D3C029C12FD12FC128D
:10279300FD12FD0AFD0AFD0AFC0B1D131D131D137B
:1027A3003D133D131D131D12FD131D131D131D1387
:1027B3001D131D131D12FD12FC12BB229922B922F7
:1027C300D922D62A5222952A723271324E29A92150
:1027D3000431A8422A4A085A287AEA8B2B9B8CABED
:1027E300EDBC2EC44FCC90D4D2DD33DD53D533C4EE
:1027F300B19BEE8B6C8B4B93CCB46FD532EE16FE44
:10280300B9FED9F698F698F6B8FEB9FEFAFF1CFFA2
:102813003DFF1DFEDCF67AE618DDB7D597D577D5F3
:1028230076D575DD96E5B7EDF8EE39EE59F658F63F
:1028330038EE16EE16EE15E5F5E5B4DD74D532C4C3
:10284300D18BCD31A6108308410841086110821055
:102853006210831083106218A310A220E418A3103F
:10286300821083108310830862112812FA0B1A0A4C
:10287300FA0B1902BA6CDC8D3C029C12FD12FC129D
:10288300FC0AFD0AFD12FD0AFC0B1D131D133D136B
:102893001D131D131D131D131D131D131D131D13B5
:1028A3001D131D131D131C1ADA1AD91ADA1AFA2268
:1028B300D82A7322962A742A512A532A722A2E213D
:1028C3002531874A4A52285A487ACA8B2B9B6CA3D4
:1028D300CDB42EC44ECC8FD4D1DD33DD33C4D1A3DC
:1028E300ED8B6C8B6C8B8CA40EC4D1E594F678FEC7
:1028F300DAF6D9F698FE98F6B8FEB9FEDAFEFCFFD2
:102903001DFF1DFEFCF6BBEE5AE5F8DDD7DDD7DD76
:10291300B7DDB7E5D7E618EE59F67AFE9AFE9AF6D2
:1029230079F658EE57EE36E615E5B4DD73CD12B4FD
:1029330090732C2125086208410841084110821038
:102943006218831062108318A3108218C318A3108F
:10295300A31083108310821082198C0B1A0AFA0BAE
:102963001A0B1A02BA6CDC853C029C12FC12DC12B4
:10297300FC0AFC0AFC12FD131D131D131D133D134A
:102983001D131D131D131D131D133D133D131D1384
:102993001D131D131D1ADB1ADB1AFB1AFB22B72AA0
:1029A300722AB732962A7122B522D922D9227221EC
:1029B3000431A6526B4A08626972CA8B0B936CA3EB
:1029C300CDABEDC44ECCB0D4F1D532C4D1A3CD82BE
:1029D300E9830A8B6C93ADB46FCD32EDF6F6DAFE74
:1029E300FBF6B9F698F698F698F698FEB9FEFBFE54
:1029F300FCFF1CFEFCF6DBF69BEE39E5F7E5D7E5BD
:102A0300D7E5F8EDF8EE39F65AF69AFE9AFE9AFEF5
:102A130079F678F657EE36E5F5DD93D532C4F1A4B1
:102A23002F522810A308620841084108611083103F
:102A33008318A310421062188218A3210418A31844
:102A4300A310831083108310A312110B1B0B190BFC
:102A53001A0B1902DA6CDC8D3C029C12FC12FC127C
:102A6300FC12FD12FD131D131D133D1B3D133D13DE
:102A73003D133D133D131D131D133D135D133D13F3
:102A83003D1B1D1AFC1AFB1AFC1AFB22D822B62A7C
:102A9300B82A932A9122F91B5D22F922FB222F29BE
:102AA300444229422A52295A6972A9830B934CA39F
:102AB300ACB3EDC44FCCB0D4F1CCF1B44E8AEA72CE
:102AC300677AE98B2A9BACB490D573EE16F6DBF6E6
:102AD300FCF6B9F678F657F657F657F698FEDAFE8F
:102AE300FCFEFCFEDCFEDBFE9BF65AEE18EDF8ED79
:102AF300F8EDF8EE18F639F659F67AF69AF69AF6EC
:102B030079F658F657EE16E5D5D573CD12BCB18BD1
:102B13008D29450862086208410841086110821046
:102B2300A318A31062188318821882210418A32102
:102B33000518A318A3108310C512540B1A0B1A0BF4
:102B4300190B1902DA6CDC853C029C12FC12FC1294
:102B5300FC12FD12FD131D133D1B5D1B3D1B3D1B95
:102B63005E133E133D133D133D133D133D133D1BB8
:102B73003D1B1C1B1C22FC1B3B22D922D92AB62A33
:102B8300912AB51B3C135E1AFB1AFA2AD829EB3992
:102B9300E839C84A4A52495A4872A9830B934C9B55
:102BA300ACB40EC46FCCB0CCD0C48FABED82C962D1
:102BB30027622762078B2AB46FD532E5D5EE57F625
:102BC30098F697F677F677F657F636F657F6B9F698
:102BD300BAFEDBFEDBFEBBFE9AFE7AFE59F639F641
:102BE30018F618F638F658FE59FE79F699F699F65E
:102BF30079F658F637EDF6DDB4D532C4D2AC71525E
:102C03004910A21082084208410841106218A3101B
:102C1300831083106218A318A3188318C318A32062
:102C2300E418A3108310A3196A12D70B1A0B1A0BFB
:102C33001A0B1902DA6CDC853C029C12DD12FD12C0
:102C4300FD12FD12FD131D133D1B5D1B5D1B3D1B83
:102C53005D133D133D133D133E135D133D1B3D1BA0
:102C63003D1B1C1B3C1B1D22F922B72AB52A9522AA
:102C7300D9235D1B5E1B1D1B1C23192AB529EB31B0
:102C8300872988526B5249626972CA830B936C9B82
:102C9300CDB42EC48FC4D0C4B0BC6FA3ED832A625D
:102CA300274144390459E69BCCC4B0D532E594EDB1
:102CB300F5F635F677F698F698EE16EE16F658F61C
:102CC30099F69AFEBAFE9AFE9AFE7AFE59F639F6FC
:102CD30039F638F638F658FE59FE79FE79F679F664
:102CE30058F658EE16E5D5DD73CCF1B491836D2912
:102CF3004510A20862084208410841106218A3184F
:102D03008310821083108318C418A318A318A22059
:102D1300E320C418C318C419CF12F90B1A0B1A0BEA
:102D23001A0B1902DA6CDC853C02BC12FD12FD128F
:102D3300FC12FD131D131D133D133D133D131D13F2
:102D43003D133D133D133D1B3D1B3D133D133D13F0
:102D53001D1B1D1B3C22FB22D92A962AB822FC1BD1
:102D63005D1B5D1B3D1B3C2319231A2AD6320929FF
:102D73008831A8528B5249626972EA832B938C9BE8
:102D8300CDAC2EBC6FC4AFBC8FB46EA40D8B6B6A7D
:102D93008849A5412541246A68A3CDB46EC4B0C453
:102DA300D0D532EE16F657F657EE16EDF5EE16F6CB
:102DB30058F679F679F679F679F659FE59F639F631
:102DC30059F658F658F658FE59FE59FE59FE58F66C
:102DD30038F637EDF5E5B4D532C4B1940F4A27215F
:102DE3000410620842084208410841108318A318DE
:102DF30083108310A310A318A318A318A318A31850
:102E0300C320E418C219061A530B1A0B1A0B1A0B18
:102E13001A0B3A02DA6CFC855C029C12FC12FC125F
:102E2300FD12FD12FD12FD131D131D133D133D1362
:102E33003D133D133D1B1D131E131D131D131D13A6
:102E43001D133C131B1AFA2A9722B91B1B1B5D1B6C
:102E53005D1B5D1B3D1B1A1AFA233B2A4E29EA21EF
:102E63004639C8528C526A628972EA832B938C9BCF
:102E7300EDAC4EB46EB46EB44EAC2D9BEC8B8B7B31
:102E83000A6A6862276227726883299BCCAC2EA3E7
:102E9300CC82C9B40EE5B4EDF5EDD5EDD5EDF5F67F
:102EA30016F658F638F638F638F638FE39FE39FE97
:102EB30039FE38FE38FE38FE38FE58FE58F638F62E
:102EC30017F5F6E5D4DD53CCD1AC4F62EB312510C9
:102ED3006208410842084208210842108310A310E7
:102EE3008318A3108318A320E418C420E420C3206C
:102EF300E4210410A318E61A960B1A0B1A0B190BEC
:102F03001A12F902DA6CFC855C029C12FC12FC12A8
:102F1300FD12FD12FD12FD131D131D131D131D13B1
:102F23001C133C1B1D22D822F912FD12FD12FC12A8
:102F3300FC131C131C22B722BA1AFC1B3C1B5D1B7F
:102F43003D1B3C231B22FB231B32F62188214729EF
:102F53002531C84A8B526962897B0B8B4C9BADA38D
:102F6300EDAC2EAC2EA40DA40DA40D93EC93AC8B61
:102F7300AB8B8B93ACA40DAC2E9BECAC2ECD32D58E
:102F830053A3AC8AA8C46FDD32E594EDD5EDD5ED3E
:102F9300F6F616F617F617F617F617F618F638FEBE
:102FA30038FE38FE38F638F638F638F637F637F6A0
:102FB30017F5F5E5B4D512BC907B6D39A620C3187F
:102FC3008208621062086208211062108318A3103D
:102FD300A318C3188318A318C418E418C321042022
:102FE300E320E318C4196B1A980B190B190B190B6F
:102FF3001A131A02DA6CFC855C029C12FC12FD1295
:10300300FD12FD12FD12FD131D131D131C131C13C2
:103013001C12FD1B1C42F17B505B5622FB0AFD1B5D
:103023001C1AFC22BA229A12FC131C131D1B1C1B14
:103033001C22FB22DA22BB32F721EE192420E421E1
:103043000431A74A6B524A6AAA832C938D9BEDA441
:103053000EA40D9BCC938B93AC93CC93CC93CC9C31
:103063000DAC4EC4D0D593D594C512CD32E5D5E57C
:10307300F5DD53BC4FC46FDD33EDF7F637EDF6EDF9
:10308300D5F5F6F5F6F5F6F5D6F5F6F5F7F618FEF9
:1030930038FE38F638F618F618F618F617F617F657
:1030A30016EDD5DD53CCD293EE62C95A6841E729B8
:1030B30004106208620842082110821083108310F2
:1030C3008318A318A320C418C3210418C320E42021
:1030D300C318E3212519CE12B8131A0B190B1A13AF
:1030E3001A0B3A02FA6CFD8D5C02BC12FD12FD1242
:1030F300FD12FD12FD0AFD12FC1AFC12FC12FC1358
:103103001C231B22D84AD26AF083717352331A12DA
:10311300DC22DB1ADA12FC131C131D131C1B1C22EA
:10312300FB1AFA1AFB2B192A511946192518A42040
:10313300E429454A0A524A6AAA834B9BCDA42EAC82
:103143004E9BCC6A8859E67AC97B0A8AEA932BA3F9
:103153008CBC0EDD32EDF6E5D5D553DD94EE16EEDF
:1031630036EE16EE16EE37F679FE79F678EE16EDB4
:10317300D5EDD5EDD5F5B5F5B5F5D6F5D6F5F7F627
:1031830018F618F618F617F617F5F7F5F7F5F7ED3D
:10319300D5E594D512B46F8B8D832A628941A62815
:1031A300E4188310620842084218831883108310BE
:1031B3008320E420E320E318A3212420E420C31880
:1031C300A318E32125220E0AD8131A0B1A0B1A137C
:1031D3003A133A031B651D8D5C0ABC1B1D12FD12BD
:1031E300FC12FC12FD333A5BB86BD763B953B93B9E
:1031F300572A2E19AB31EA8C54A4B57B6F8B905BA5
:1032030078231B231B2B3A2B3A1B1C12FC1B1C1A67
:10321300FC1AFB2AF72A0D212718C310A410A32197
:103223002518C339C852696AAA834B9BEDAC4EACCF
:103233004F9BCD51E610623904616579C6822792AE
:1032430068A2A9CBCDED73E5D4E5B4EDF5EE36EE8A
:1032530036EE56F677F678F679F679F658EE16EDF9
:10326300D5EDB4EDB4EDB4ED94EDB5F5D5F5F7F6D4
:1032730018FE18F618F5F7F5F7F5F7F5D6EDB5E5F9
:1032830094DD33C491A44FB4B193AE6B4D5228393E
:1032930024310418A3082108421883188318A310A3
:1032A300832925210418C320C42105210518A3203F
:1032B300C320E41927223112F80B3A0B3A0B5A0BAD
:1032C3005A0B5A033B6D1D8D5C0ABC1B1D12FD126C
:1032D300FD12FD32F99434ACD6ACF7ACD6949552CA
:1032E300CD298821682967CDF9E65AC577ACD5A4DD
:1032F300B58C7584549454A495947443781AB91A6C
:1033030075322F31A818E418C30882108308822964
:10331300251062294552496AA98B4B9BEDA44FACFA
:103323004F9BED6A89412530E3208228A2594579D4
:10333300E79227A228CB8CDCF2E533F5F7F637F6D4
:1033430036F636F657F657F658F678F657F616ED7C
:10335300D4EDB4ED94ED94ED94ED94F5B5F5D6F587
:10336300F7FDF7FDF7F5D7F5D6F5D6EDB5ED74DD39
:1033730053C4F19C0FAC8FBCB0A3EE7B0B6A6951B5
:10338300C7392410410021108218A218A318A310D2
:10339300822925294620C320E42946212518C3185C
:1033A300A218E321881A5213390B7A0B7A0B5A0BA2
:1033B3007A0B7A033A6D1D8D5C0ADC1B1E1B1D4BB9
:1033C3005863B773F39C34A474A495A4959C336396
:1033D3002F739073B15AEEAD16D5FABD37AD16AC57
:1033E300F6ACF5B536BD56B515BCF3ACD452AC212D
:1033F3004531A710A318C4088208820883108329C3
:1034030046106218C352286A89832B9BEDA42EA40D
:103413002E93CD7AC961C782297A0839031882317C
:103423002461A679E7A248BAEAC32ADC4FEDD6EEB7
:1034330057F656F657F637F637F657F637EDF6EDF5
:10344300D4EDB4EDB4ED94ED94ED74ED94F595F500
:10345300B6F5D6F5D6F5B6EDB5ED94E574DD33CC1A
:10346300F29C2F39A641A56A677AEA72AA5A0731F4
:10347300040841002008211082188218C31082100A
:103483008229253187292529252125296718A3186C
:10349300C4192629AA1A7313590B7A0B7A0B7B13B7
:1034A3009B0B7A035B6D1D8D5C0ADD1B1A73D5B410
:1034B300D5BD17B4F7B4F7BD17BD38C558C5174206
:1034C300B03A6E52ED6B6F8C11A493BD16B557B520
:1034D30016BD36CD77CDB8D5D8CD97C535ACB2624C
:1034E300CB18C310A3108308610862086210A318E5
:1034F300E40862108241A66A69830A93CC9C0E9CFD
:103503000E93AC72E961E77A28B2AAC2EB8A28511A
:1035130045418651E772089248A268BAC9D40FEDB3
:10352300B6EE36EE57F637F637F637F636F615EDCE
:10353300F5EDD4EDB4ED94ED94E573ED74ED95ED07
:1035430095F5B5EDB5ED95ED74E573DD33CCD2AC02
:103553007041E70000000000001061108208410084
:10356300200021004108411082108218A318A310E3
:10357300A33187296629052925318629662104195E
:1035830026216821AA1AB5133A0B7A0B7B0B7B0B06
:103593007B0B7B033A651D855C02BC4AF3A474BDB7
:1035A30038BD38BD18BD17BD17BD37CD78B5173237
:1035B300D22AD32A8F2A6E2A4D326C5B0F9CB5C553
:1035C30077C577CD77D5D9E65BE63ADDF8BD34A488
:1035D3009262CB2125086208611082108220E410D8
:1035E300A310620862292562487AEA8B8C9BED9BC3
:1035F300ED93AC7B2A6A4879E7A269C2CBD30BC2AD
:10360300EA9A6969E751C76AAA7ACC9269AA89CB0F
:103613008CE553EE16EE16EE16EE16F616F615EDCF
:10362300F5EDD4EDB4E594E573E573E554ED74ED90
:1036330074ED74E574E553DD53DD32CCF2B491627D
:10364300AA004008000021082100200020002100DA
:10365300410841004108211082108220C418C4107F
:10366300A33A09298720C429053187214621262128
:1036730067216929A91AB6133A0B7A0B7B0B5B0BEB
:103683005B0B5B031A6CFD855C22756B2F94139C9B
:1036930034AC95ACB5A4949C7483B1628B5B0F334B
:1036A300143B7643973B343B3443954BB68C97CDD1
:1036B30098CD98CD98DDD8E63AE65AE639DDD7D5E8
:1036C30076B4F48BEF39A60841086210A3210418DD
:1036D300A30862086210A251E772C98B6B93CD9B5A
:1036E300ED93CD8B6B7AA879E79248BACACAEBD32C
:1036F3004CDB8DDB6CB32B7A8A6AAB51E86186892C
:10370300C6BB0ADD12E5B4E5D5E5D5EDD5EDF5ED9E
:10371300F4EDD4E5B3E593E553DD33DD33E533E58C
:1037230033E533DD13DD12D512CCD1B4B07B8D106C
:10373300A200000821082108210841084108410886
:10374300410020002108411062108318A320E418CF
:10375300C439E831A720E4290529452146298621D2
:103763008A218929671AB5137A0B5A0B7B0B5B0BDA
:103773005B135B031A6CFD95374A8E6B4E83B1B4B2
:1037830095CD58CD78C558B5168BD141C7320C3B72
:10379300964BF97D3D859E7D9E751E5C3A9477C55B
:1037A30057C577CD97CD97D596DDD7DDF8E5F8E505
:1037B300F8D596C514ACB16AEB18C3086210A31808
:1037C300A3084208620841416572888B2B9BCCA3F6
:1037D300ED9BED93AC8B0A82888A27AA89C2EBCB37
:1037E3002BD38CE40FEC70DBCEBB0B926959655184
:1037F3002471448A68B40ECD12DD74E594E5B4ED0A
:10380300D4E5B4E593E573DD52DD32DD12D512D490
:10381300F2D4F2D4F1CCD1C4B1B4908BEE21040034
:1038230020082108210821082108410841084108EE
:10383300410841084108410862106218A318E421B5
:103843000431C831C8210531462945296629EB29A8
:10385300EC198A29A82294135B0B5A135A0B5A0B9F
:103863005A0B5A02D96CDCA53552AD7B909C33BC04
:10387300F6D59ADDDBD5DBBD588BF249E9328F43B0
:10388300B75C7DB69FE7DFC73F857E5C39B539DE20
:103893001ADDF9DE1ADE19DDF8DDB7DDD8DDD8DD96
:1038A300D8DDD7DD96CD54CD349C5039A610821087
:1038B3006210831083004120C26A47830A9BACA332
:1038C300EDA40D9BED936B8B098AA89A68B2A9C2EC
:1038D300CACACAD3CEE555E4F3E3EFE3EEDBAEC3E6
:1038E3000BA26979A661659B4BD511DD73E593E561
:1038F300B3E593E593E573DD53D532D512D4F2CC1A
:10390300D1CCB1C4B1C4B0B4909C2F39C600200847
:1039130021084108410821082108410841084100C4
:10392300210021084108620842108218C318C321EC
:103933000539E831A721042945294629A822522A15
:103943002E21EE2A0C2294133A0B5A133A133A0BF4
:103953003A0B3A02D96CDCB5B883B2A433B4B5C51B
:1039630037D59AD5BACD79ACF77B6F4A094333542F
:103973001BA61EF7FFFFFFDF9F7D5E647ACDDAEEA5
:103983005BE63AE63AE65BEE5AEE5AE639E5F8DDEF
:10399300D8DDD8DDB7D596D575D554BD1372EB10E8
:1039A30082108318C30061086151C682A9936BA377
:1039B300EDA42EA42DA3ED9B8B9B4B930A9AC8AA2F
:1039C30089BAA9CB0BD36DDC10DBCFDBCEDBAEDB4F
:1039D3008DDBADCBEFABEEA3ADC4D0DD52E593E50C
:1039E300B3E5B3E593E593DD73DD32D512CD12CCA8
:1039F300F1C4D1BCB0B4909C2F4A270041004108C8
:103A030041084108410821082108410021084108D3
:103A1300410020086220E40862108218A318C42120
:103A23002539C831A821052125294621CA1A9522FD
:103A33006E22302250229313390B5A133A131A0B66
:103A43001A131902B96CDCCE39A474ACB5BCD6BD5B
:103A530016BD16BCF6ACB58BD15A2A39C84375AE20
:103A63005EFFFFFFFFFFFFFFFFA63E749AD61BEE2C
:103A73005BE63AE63AE65BEE9CEE9BEE7BEE5AE6BD
:103A830039E619E5F8DDD7DDB6D575D554CD538BB9
:103A9300AD318618A308410862392472488B4AA3C2
:103AA300EDAC4EB44EAC4EAC0DABEDA3AC9B6A9AF1
:103AB300E9A2A9B2C9BAA9C2EBC30BCB2CCB8DCB5C
:103AC300EED44EE4F1DD94CD52D511DD52E593E50C
:103AD300B4E5D4E5B4E593DD73DD52D532CD11C43D
:103AE300F1BCD1B4B0A44F52680841084108410861
:103AF300410841084108210821002100200821082C
:103B0300210821108218E4086210A318C318C431D5
:103B13008639C839C82105210531A8224F12D72A71
:103B23008F2A502250229313190B3A131A0B1A0B94
:103B33001A12F902B96CDCDE7AB4B5B4D4B4B4ACFD
:103B4300749C1193D08BD093F193D16B0E7C35A5DC
:103B53007BB65DCEFEE77FF7FFD73E8CDBE63CE628
:103B63003ADDF9DDF9DE1AE63AE63AEE5AEE3AEED6
:103B73005AEE3AE639E619E5D8DDB7D595D554D5E9
:103B830054B4B24A2810411062188261E78B0AA329
:103B9300EDBC6FBC8FBCB0C48FBC6FBC4EB40DAB5F
:103BA300CCA3ABAB8BAB6BB38BC3CCC42ED4CFDD6D
:103BB30051DDB3E5D4E5D4DDB3DD72DD72E593E524
:103BC300B4E5B4E5B4DD93DD52D532D532CD11C4BD
:103BD300F1B4B19C6F526810620841084108410872
:103BE30041084108410821082108410841084108CA
:103BF300210821108218C3108318A318C42105318A
:103C0300A7296631A82946314631EA22B41AB822D7
:103C1300702271229222941AF90B1A12FA0AF913DA
:103C23001A131902B96CDCDE7AB4D5B494A4328BBE
:103C3300B0836F93D1A452C4F6DD9ADDDADDD9D512
:103C4300DBCE3DC63DC65DC65DCEBDA55AD599D575
:103C530098D5B8DDD9DE1AE63AE639E63AE63AE629
:103C630039E639E639EE39E619E5F8DDD7DDB6DDB3
:103C730076D575BD1372EB20E3106249658AE9AB13
:103C8300EDBC90C4D0CCF1CCF1D511D4F1CCF1CCB6
:103C9300D0CCD0CCD0C4CFCCD0D511D572DD93E568
:103CA300D3E5D4EDF4EDF4E5B4E593DD72DD72DD37
:103CB30092DD92DD73DD52D552D531CD11BCF1B415
:103CC300B0942F4A28088208620842084108410834
:103CD30041084108410841082108410841084108B9
:103CE30041002010A318E410A318A320E429662997
:103CF30066294631C8296629672A0D1AB712B722E1
:103D0300921A731AB41A951AD80B1A0AF912FA12DC
:103D1300FA12FA02B96CBCD65AA4339BF28BF29412
:103D230013A4B5B4D5C4D5D537E61BF67DEE7DF621
:103D33009EF6BEF6DFF71EEEFFE6BEE65BDDDADDDE
:103D4300FAE65BEE5CEE7CEE7BEE7BEE5BE63AE660
:103D53001AE61AE63AE639E63AE63AE619E618DDED
:103D6300F7DDB6D595CD549C0E41A620A37268A36A
:103D7300CDC48FCCD1D511DD32DD53DD53E573E5F1
:103D830073E593E593E593E5B3E5B4EDD4EDF4ED95
:103D9300F4EDF4EDF3E5F3E5B3E593DD52D531D579
:103DA30031D551D531CD11C511BCD1B4B0A4907B5F
:103DB300CD31A5086208620862086208410841081B
:103DC30041084108410021084108610841084108B0
:103DD30041004118C318C418A318C3210429453945
:103DE300E831A729862105218922501AB81AB7225A
:103DF300931A941AD51AB71AD712FA12FA12FA1298
:103E0300DA12F902B96CBCC5B893B1A474AC94C509
:103E130017CD78CD58D578DDB9E63BEE7DF69EF625
:103E2300DFF6FFFEFFFF1FF71FF6FFF6DEF69EF637
:103E33009DEE9DF6BEF6BEF69DEE7CEE7CEE5BEE51
:103E43005BEE5BEE3BE65AEE5AE65BE65AEE5AE66B
:103E530039E618DDF7DDB6D594BCD172EB51C693C4
:103E63002ABC2ECC90D4F1DD32DD53E573E594E525
:103E730094EDB5EDD5EDD5EDF5EE15EDF5EDF4EDF0
:103E8300F4E5D3E5D2E5B2E5B2DD92D531D510CC78
:103E9300F0C4EFBCD0B4AFAC8FA46F8BEE5A8918CB
:103EA300E3002108620862086208620842084100D0
:103EB30021084108410841086208410021084108DE
:103EC30041082110C310A320E4108320E421044AF5
:103ED3004A296631A7210529CC22B41AB81AB71A80
:103EE300B51AB61AD51AD822F612D912FA12FA123C
:103EF300DA12D902996CBCC5F8A453BCD5CD37D519
:103F030099DDB9D599DDB9E5FAE61AE61BEE3CF67B
:103F13007DF6BEF6DFF6FFF71FF6FFFEFFF6FFF6B0
:103F2300DFF6DFF71FFF3FF71FF6FEF6DEF6DDEEE7
:103F3300BDEE9CEE7CEE7CEE7CEE9BEE9BEE7BEE90
:103F43007BEE5AEE39E638E617DDD6D594A42F8BEF
:103F53000AABACBC4ECC90DCF1DD32E552E573E547
:103F630094EDB5EDF5F5F5F616F615EDF5EDD4E5AD
:103F7300D3E5B2E5B2E592DD91D551CD0FC4AFBC27
:103F83008EB46EA44E9C0E8BAD62C92944084108C1
:103F93002108420862086208620862084100210899
:103FA30041084108410862086208410020084108AD
:103FB30021002110A410A320E418E42104210539D1
:103FC300A7296631C82146220E1AB61AD812B81A82
:103FD300D71AB71AB512F91AD712D80AFA12DA127F
:103FE300DA12F902996CBCD659B493C515D598DD8C
:103FF30099D599D558CD37C516CD37D578DDBAE5DE
:10400300FBE63CEE7DF67DF69DF6BEF6DFF6FFF6AB
:10401300DFF6FFFF1FFF5FFF5FF75FF73FF73FF736
:104023001FF6FEF6DDF6DDF6DDF6BDF6BDF6BCF6F3
:104033009CF69CF69CEE7BEE7AEE39E618DDD6CD47
:1040430033B42EABEDBC2ECCB0DD11DD32DD53E548
:1040530073EDB4EDF5F615F615EE15EDF4E5B3E5F0
:10406300B2DD92DD72D571CD30C4EFBCAEAC4D9CE8
:104073000D93CD732A4A27292408610020004108A3
:104083004108420862086208620862084208410067
:1040930021084108410862084108410021084108FC
:1040A30062084110C410A318C4210521252104313D
:1040B30087296631C921681A7212D91AB712B71241
:1040C300D81AB712B70B1A131812D90AFA12DA123E
:1040D300FA12F9029A6CBCDE59C4B4CD16C517C4E2
:1040E300F7CD59C559B539ACF8ACF7BD58BD58C56E
:1040F30038C4F6C4D6D558DDB9E5FAEE7DF6BEFE72
:10410300DFF6FFF71FFF3FF73FF75FF75FF75FFF4D
:104113001FFF1FFF1FFF1FF71FFEFEFEFEFEFEF623
:10412300DEF6DEF6DDF6DDF6BCF67BEE5AE638E5C6
:10413300F6DDB4CCF1B42EB40DC48FD4F0DD31DD93
:1041430032E572EDB3EDD4EDD4E5D3E593DD72D56D
:1041530070D550CD10C4EFB4AEAC4D93CC836B622D
:10416300A9316518A2084100210841082108210846
:104173004108420842086208620862086200410876
:104183002108410862084208210821084108620801
:1041930042084118C410A321042104298721263190
:1041A300A729A731EA2A0B12940AD91AD81AB712E7
:1041B300DA12D71A970B1A0B391AD90AF90AF90A1C
:1041C300F912FA029A6CBCD619B434B4B6B519B55F
:1041D3009CC5FECE5FD6DFDEDFDF5FDF3FE71FDE9E
:1041E300FED69CBDB98BD1A412D537DDBAEE1CEE39
:1041F3005DEE7DEEBEF6DFF6FFF71FF73FF73FFFFD
:104203003FFF3FFF5FFF5FFF5FFF5FFF5FFF3FFF1B
:104213003FFF1FFF1FFF1EFEFDF6DDEE9BEE7AEE56
:1042230059E617E5F6DD94C4F1BC6EBC2DC46ECC23
:10423300AFD4F0DD51E571DD51DD31D510D4EFCCD4
:10424300CEC4AEB44D9BCC834B72EA628849E61070
:10425300A20020082108410841084108410821081B
:10426300410842084208620882088200420041086D
:104273004208410862086208210821082100210838
:104283004110A310A318E42986214531E931C93A25
:1042930008322B324C225012D70AF912D912D912F2
:1042A300D912D81AB70AFA0B391AD90AF90B190B0A
:1042B30019131A02BA6CDCC5D99457AD7CBDDEBEA6
:1042C3001EBE1FCE7FD69FDEFFE73FE75FE75FE7B8
:1042D3005FE77FF7BFDEFEA4D693D2B494D558DD53
:1042E30099DDBAE61BE65DEE9EEEDFF6FFF71FF7FC
:1042F3003FF75FFF7FFF5FFF7FFF7FFF9FFF7FFF33
:104303007FFF5FFF5FFF3FFF1EF6FEF6DDF6DCEE8D
:104313009BEE7AE658E617E5F6DDB4CD31C48FBCE3
:104323002DBC0CC42DCC6EC46EBC4DB40CA3EC934D
:104333008B7B2A6AA95A685A475A68526821030034
:10434300410841082208410841084108420842083F
:104353004208410841086210A30882086208620803
:104363004108410862086208210821004108411000
:10437300C421670883192529A729A8322A3A6C3949
:10438300E82A2C2A2B1AB412F90AF90AD912F912BB
:10439300D912F912B812FA0B1912D912F90B1A0B16
:1043A30019131A02BA6CDCC63B94FBA55DAD9EBD26
:1043B300FFBE3EC65FD69FDEFFDF1FE73FE73FE757
:1043C3003FE71FE75FEFBFEFBFC65C943393B1BC1A
:1043D30095CD38D599DD99DDFBE65DEE9FEEDFEFF8
:1043E3003FF75FF77FF75FFF7FFF9FFFBFFFBFFFD2
:1043F3009FFF9FFF7FFF5FFF3FFF1FF71EF6FDF647
:10440300FCF6DBF6BAEE99E657E616DDD5DDB3D555
:1044130052C4AFB3CC82C862475A275A07520752D5
:10442300074A2752475A885AA8524752AA18E408FB
:10443300410842084208410841084108410842082E
:10444300420841084208620882086208620862085A
:104453004108610882084208210841002110C42A4A
:104463002B192618822125296731EA32EF4B304177
:10447300C8326E2A2C12B712F90AFA12D912D912BB
:10448300F90AF912B90B190B1A0B1A12D912FA0BF2
:104493001A12F902BA6CBCBE1B849A9D5CA59EAD30
:1044A300DEBE3EC65FD69FDEFFE73FE73FE73FE75F
:1044B3003FE75FE75FEF7FEF7FEF9FDF3F9CB673E1
:1044C300508BD2A474BCF6D558DDBADE1CE67DEE63
:1044D300DFF71FF73FF77FFF7FFF9FFF9FFF9FFFE1
:1044E3009FFF9FFF7FFF5FFF5FFF3FFF3FFF3EFF9A
:1044F3003DF71DF6FCF6DAEEBAEE99EE58E637E62E
:1045030016E5F5DDB3B4AF7B2B5A27520752485259
:104513008862886AC96AE96AC93144422918E40889
:10452300410862084208410841084108420842081C
:104533004208420842088208820862086208820828
:104543006208A310A30821084100410842220C225B
:104553004C10621082192531E8428D5436430F39CD
:10456300E83B102A8F12B70AF90AFA12F912F91264
:10457300F912D912D90B19131A131A12D9131A0BC8
:104583001A12F902BA6CBCB5FB74599D5DA5DEAD78
:10459300BEBE3EC67ECE9EDEFFDF3FE73FE73FEF78
:1045A3007FE75FE73FE75FEF5FEF7FEF9FE75F9DAA
:1045B3003963506B2F8BF2B4D6CD38D579DDFBE65A
:1045C3005DEEBEEEFFF73FF73FF77FF77FF77FFF25
:1045D3007FFF7FFF5FFF5FF73FF73FF73FFF5FFF20
:1045E3005EFF3EFF1DF71CF6FCF6FBF6DBF6DAF684
:1045F300B9F6B9EE57EE35DDD4C4F093CC7B2A6B14
:104603000A7309732973296AA918C34249214510FA
:10461300A3088308410841084108410842084208A9
:10462300420842086208820862086208620882102F
:10463300C419051082002108620861216832F02143
:10464300A808411082212531E85BB464973ACE3A39
:104653004B43734B9312B70B1A131A0AF90AFA1244
:10466300FA12FA12F90B1A131A0B1A0AF9131A137C
:104673001A12F902BA6CBCBE1B7C9A951CA5BEB675
:104683001FB5FEC67ED6FFD6DFD6FFE75FE75FE73F
:104693005FE73FEF7FEF9FEF9FEF7FEF9FEFBFE777
:1046A3005F9D1B6B92739283D2A475BCF7CD58D5D3
:1046B300BADE1CE67DEEBEEEFFEF1FF73FF75FF7B6
:1046C3005FF75FF75FFF3FF73FF73FF73FFF3FFFBF
:1046D3003EFF3EFF1DF71CF71CF71CFF1CFF1CFFD2
:1046E3003BFF1BF6FAF6B9EE77EE36DDB3C531A420
:1046F3006E8BCB7B6A7B49628818824AAA2165212B
:104703006610C4084208410041084108421062088B
:104713006208620862088208620862086208A319D4
:104723002610E50820086108821105335232F0197A
:1047330025084110A3214629E97CF974D64B504240
:10474300AD645753F51AF8031A0B1A0B190B1A1207
:10475300F912FA0AF90B1A0B1A0B1A0B190AF912A6
:10476300FA12F902B96CDCBE1B7C9A951CA5BEB685
:104773001FC67FCE9FCEBFD6DEDEFFE73FE73FEF0C
:104783007FEF7FEF9FEF7FEFBFEF9FEF7FEF7FEF36
:104793009FDF1F9D1A7BF673B47BB18C12ACB5C53A
:1047A30017C558D5BADE1CE65DE69EEEDFEEFFEFD9
:1047B3001FF73FF73FF73FF73FF71FF71FFF3FFF96
:1047C3003EF73DF71DF71CF6FBF6FBFF1CFF1CFF36
:1047D3003CFF3CFF3CFF1BF6FAF6B9EE77E636DD0D
:1047E300D3CD51B48FA40D72C820A24AEC1925323F
:1047F300292166088208620841084108621062089C
:104803006208621082088208820882086210C41952
:104813004610E4082110A210C33B1154363AF0109D
:10482300C4086218E4214642EF9DDC6C954B30428C
:10483300EE855A6CB83BF80B3A0AFA0B190B190AB6
:10484300F912FA12F90B1A0B1A0B1A0AFA0AF90AD5
:10485300F912F902B96CDCBE1B7C799D5DA5BEB66D
:104863001FC69FC69ECEBFDF3FDEFFDEFFE75FF7BB
:10487300BFE75FE75FE75FEF9FEF9FEF5FE75FE70D
:104883005FEF9FDEFFA57C84377BD473717B9094AD
:1048930033ACD6BD38C579CDBAD5DBDE3CE65DE6B3
:1048A300BEEEFFF71FF71FF71FF71FF71EF71EF7E1
:1048B3003EF71DF6FDF6FCF6DBF6DBF6DAF6FBFF5C
:1048C3001BFF1BFF1CFF3CFF5CFF1BF6DAF698EE99
:1048D30057EE16E5D4D592BCF0836C6B6C29C73ABE
:1048E300CD2A0918A410A310810882108210821007
:1048F300620862108308A208A30883088310A42116
:104903004608A3086119042A2C4C375BF34B921019
:10491300C31082210429864B51853B6C764B515B36
:10492300D395DB8D7A6D193C5B02DA0AFA0B1A0B0D
:10493300190AF912D912F90B39131A12FA0AFA12CF
:10494300FA12F902BA6CBCBE1B84BA953CADDEB553
:10495300FEBE5FCEBFD6FFD6DFDEFFE71EE75FEF0B
:104963007FEF7FE75FEF7FE73FEF9FEF9FEF7FEF04
:104973007FEFBFEFBFDF3FB63D94FB843773B37365
:10498300926B2F732EA474B517BD38C578CDBADDDD
:10499300FBE65CEE9DEEDEF6DEF6DEF6DEF6FEF61A
:1049A300FDF6FCF6DCF6DBEEBBEEBAEEBAF6BAF6D3
:1049B300DAF6DBF6FBFF3CFF3CFF3BFF1BF6DAF6C8
:1049C300B8EE77EE56E635E5F4D5B3C511940D731D
:1049D300CF4AAB210410C410E408A210A318C310DB
:1049E300820862108310C410E410A310A410C41929
:1049F300460862088321873B945C3674D853700859
:104A0300821082212531A764359DDC7CD653B36C9B
:104A13005595DC9DFC7D19757C1B7B0AFA0B190BE4
:104A23001A0B1A12FA0B190B390B190AFA12FA128A
:104A3300FA12F902BA6CBCBE1B84BB9D5DA59DB680
:104A43001EC67FC67FCE9ED6DFDF3FE73FE73FE749
:104A53003FEF5FEF7FE75FE75FE77FEFBFEF9FEF3B
:104A63009FEF9FEF9FEF9FDF5FC67EA5BD9D1C84D9
:104A7300386330316641A85A8C83909C54B4F6C590
:104A830016CD58DDB9E63BE67CE67CE69CEE9CEE73
:104A93009CEE9CEE9BEE9AEE9AE67AE679E679EE48
:104AA30099EEBAF6DAF6FBF71BFF1BFF1BF6FBF6D4
:104AB300DAF6D9F6B8F698EE57EE36E5F5DD92CD8F
:104AC30051AC90734B5249632E634F216618E31820
:104AD300C3108210A318E41926190510C410E41892
:104AE300E4084119042A6C43F75C778DBA328C10C1
:104AF3006220E53A2A31E87C96ADFC7CD65BD37C18
:104B0300F895BCAE5E857B95DC6D3E0B190B1913D6
:104B1300190B1A0B1A0AFA0B1912F912FA0AFA0AE2
:104B2300FA12FA02BA6CBCBE3C84BB9D7DA59EB54D
:104B3300FEBE3EBE3ECE9FDEFFDF3FDF1FE73FE709
:104B43005FE75FEF9FEF7FE77FE75FEF9FEF9FEF0A
:104B53007FE77FE77FE75FDF3FDF5FCEDED6FFB62E
:104B63001F8C9A422B31663166316639A76AED9301
:104B7300F1AC74BCF5C557CD98D5D8DDF9DE3AE66E
:104B83003AE65AE65AE659E659E659E659E658E648
:104B930058E679EE99EEBAF6DAF6DAF6DAFEDBF6ED
:104BA300DBFEDAFEFAF6DAF6B9EE77EE56E615E54F
:104BB300D4DDB3D572C51093ACAD77BE7C5B4F210A
:104BC30046088210A2192521872167192519051086
:104BD300E4086219873B5254186478959A3A6B1823
:104BE300C329884AEE320984B6A5FC6C576455AED6
:104BF3003CC6FECF3EB69E9E3DB6DE447C02FA1313
:104C03001A0B1A0AFA0AFA12FA12FA0AFA0AFA0A30
:104C1300FA12FA02BA6CDCBE3C84BB9D7DADBEAD1C
:104C2300BDB61EC69FCE9FD6BFD6DFDEFFE73FE7EA
:104C33005FEF7FEF7FEFBFE77FE75FE75FEFBFEFF9
:104C43009FE79FE77FE75FD6DFDF5FDF5FE79FE7F2
:104C5300BFB63F4A8D318631A731A7314629053981
:104C6300A7628B7B8F9C52AC93BCD4C535CD76CDDC
:104C7300B7D5D8D5D8D5D7D5F7DE18DE18DE38DEC8
:104C830038DE38E658E679EE99EEBAF6BAF6DAF691
:104C9300DAF6FAF6FBF6FBF6DAF6B9F698EE77EE05
:104CA30056E636EE15E5D4CD31ACD1EF7FE79FADB7
:104CB300FB741342AC2166216729872146192521FC
:104CC300C91946220A4C175C587D1A8D794AED2181
:104CD3002652ED4B0E3A2A6C34A61B8D187CB7B6C0
:104CE3007DAE3DAE7DBEFFAE7DC6DE9E5F239A0ADE
:104CF300FA0B1A0B1A0B1A12FA12F90AF912FA1210
:104D0300FA12FA02BA6CDCBE1C84BB9D5DA57DADB4
:104D1300DEB5FFC65FCE7FCE9FDEFFDF1EE77FE7F8
:104D23007FEF7FEF7FE77FEFBFEF9FE75FEF9FEFC0
:104D3300BFE77FE79FE79FE75FDF5FDF7FDF7FF708
:104D4300FFE77F5B2F318739A739A7398731663171
:104D530046314620E441A7730D8BD09410A451AC87
:104D6300B3BD14BD35BD35C576CDB6CDD7D5F7D6D4
:104D730017DE17DE38DE58E679EE9AF6BAF6DAF67B
:104D8300DBF6DBF6FBF6FBF6FBF6DAF6D9F6B9F65D
:104D930098F698F677EE56E614BCF1DEFCF7DFF7EB
:104DA300DFDF5FC6BF9DBB63D3428D218721463BB7
:104DB3001021E9220A4C175C988D9B7CF64B2F2916
:104DC300A85BB24B0D4AED7433B5D9ADFA8D199D7D
:104DD300DCB69EC6FECF3FBEBEAE5DB69F651D036D
:104DE3001A131A0B1A0B1A12F912F912F912FA12F0
:104DF300DA12FA02BA6CBCBE1B7CBA953BA59EAD17
:104E0300DEB5FEBE3EC67ED6FFDF3FE73FE75FE788
:104E13005FE73FEF7FEFBFEF9FEFBFE75FE73FEF57
:104E2300BFDF7FDF7FEF9FDF3EDF3FE79FEFDFF7F0
:104E3300FFF7FFB5F93A0939E839A739A7318731BF
:104E43006631872945106220A33966526A5ACA7BA4
:104E53006D93CE940F9C50ACB2B514BD55C575CDB2
:104E6300B6D5D7D5F7DE38DE58E699EE9AF6BAF618
:104E7300BAF6DBFEFBF6FBF6FBFEFAFEDAF6DAF633
:104E8300B9FEB9F6B8F697EE77D573DEBBF7DFF761
:104E9300DFEF9FDF5FDF5FD71FC69E9D7A6C555C98
:104EA3003732CE19A95C38751A9E1D9D9953512925
:104EB300C85B93532E84738CD584D6AE3C8D18BEB9
:104EC3009DDFBFCF3ECF3FC71FAE9DB6DFA67F2B73
:104ED300BB02FA131A0B1A1319131912F912FA1245
:104EE300FA12FA02BA6CDCBE1B7C999D3CA57DAD1F
:104EF300DEB5FEBE3ECE9FD71FDF5FDF3FDF1FE77E
:104F03005FEF7FE77FEF9FEFBFEF9FEFBFDF3FE7EE
:104F13005FE77FDF5FEFBFEFBFDF7FDF7FEFDFFFA6
:104F2300DFF7DFEFBF6B90422A420841C839A73150
:104F3300663987318718C418821882316631A75AB7
:104F43008A8B2A938B93CC93CD940F9C71ACD2BD57
:104F530034C575CDB6D5F7DE17DE58E679EE79EEB2
:104F630099EEBAF6DAF6FBF6FBF6FAFEDAFEDAFEAD
:104F7300DAFEDAFED9F6B9F698DDD5DE59FFDFF7AA
:104F8300DFF7DFEF9FE77FE77FDF5FDF3FDF5FC6AF
:104F9300DFA5FD7CB77CFA8D9BAE9E9DBA84B531AF
:104FA300E86C1353308CD66BD1957AB65CAE5BD775
:104FB3007FDF9FDF9FDF7FE79FDF9ED77EDFBF9689
:104FC3003E1B9A0AFA0B19131912F90AF912FA126B
:104FD300FA12FA029A6CBCBE1B7C79951CA57DADB6
:104FE300BEB5FEC67FCEBFD6DFD6FFDF3FE75FE7A6
:104FF3007FE77FEF9FEF9FEFBFEF9FEF9FE77FDF9E
:105003003FE75FE77FE79FE7BFDF3FDF5FE79FF7AD
:10501300DFF7FFF7FF9D1752CE52CD4A4B39C83900
:105023008739A731872125108218A318C331A742D6
:105033002972CA936AA3ABA3ECA3CC93AC8BCE9C8B
:1050430050ACD3BD34C595CDB6D5F7DE38E658E6BA
:1050530079EE99EEBAF6DAF6DAF6DAF6DAF6DAF69F
:10506300DAF6DAF6DAF6D9F6D9DDF5D5F7FFDFFFAA
:10507300DFFFFFF7BFEF9FEF9FEF9FEF9FEF9FDFF5
:105083005FD73FD73FC6DFB67FA63D959B95595B5C
:105093009264135B927C955B70BE7CCF1EBEBDD7C2
:1050A3005FE7BFEFDFEFDFEFDFEFFFDF7ED73EDF4F
:1050B3007FB6FE3C1B02FA131A131912FA0AFA12EC
:1050C300FA12D90ABA6CBCB5FB7C9A8CFB9D5CA521
:1050D300BEB61FC65FCE9FCE9FD6DFDF3FE75FE73B
:1050E3007FE77FEF9FEFBFEF9FEFBFE79FEFBFE745
:1050F3007FDF3FDF7FDF7FEFDFDF7FDF5FDF9FE785
:10510300DFEFFFF7FFD71D63D55392530F4A6B4170
:10511300C839C739A7316618A318A3188221454295
:105123000841E7830A9B8BABCBAC0CAC0C9BEB8BA2
:105133008C8BAD9C50B4F3BD34CD95D5D7DE17E63B
:1051430058E679EE99EEBAF6DAF6DAF6DAF6DAF640
:10515300DAF6DAF6DAF6DAF6DAE616D5F7FFFFFF6D
:10516300FFFFFFF7BFF79FF7BFF7DFF7BFEF7FE75C
:105173007FEF9FEF9FDF5FD73FCF1FC6FFBEBFB657
:105183009FA61D957A7CF97C96BE9DC6BED75FE728
:10519300BFEFFFE7DFE7DFE7BFE7BFDF9FBEDEA6C7
:1051A3007EAE7E963D239A0AFA131912FA12DA1288
:1051B300DA12D9029A6CBCADDA74598CFB953CA512
:1051C300BEB63EBE3FC65FCEBFCEDFDF1FE75FEF9B
:1051D300BFEF9FE77FEF9FEFBFEFBFEFBFE7BFE7F4
:1051E3009FDF3FE75FDF7FE7BFE79FDF5FDF9FE78C
:1051F300DFEFDFEFDFEFDF955B63D75BB4534F4A3E
:105203006B41E839C731A72104108310A310822909
:105213002431864A49936BA3ABA3ECABEBB40CB438
:105223002CA3CB836B83CE9C71B513BD74CDB6D643
:1052330017DE58E679EE99EEBAF6DAF6DAF6DAF62A
:10524300DAF6DAF6FAF6DAF6DAE616CDB6FFFFFFA5
:10525300FFFFFFF7DFFFDFF7DFF7DFF7DFF7BFEF73
:105263009FF7DFF7DFEF9FE79FE77FD73FD71FD793
:105273001FCF3FCF1FC6DFAE7F9E1DAE5CB69DCF57
:105283001EDF9FEFBFEFFFE7BFDF9FCF5FB6BE9588
:10529300FDA65FB6DF9E5D2BD90AD912F912F9126A
:1052A300D912D902996C9CADDA74598CDB9D5DA53A
:1052B3007DADDEBE3EC67FCEBFD6FFDF3FDF5FE7FD
:1052C3007FEF9FEF9FEF9FEF9FEF9FEFBFE79FE77B
:1052D3009FE75FDF3FDF5FE79FE79FDF3FDF5FE73B
:1052E300BFEFDFE7BFEFDFC6BE7C9B6C395BB45318
:1052F300304A8C422939C8296610831083188218D2
:1053030082292539E85227938BA3CBABECABEBACCB
:105313000CB42CAC0C8B8B7B4B8BEEA4B1B534C58E
:1053230095D5D7DE18E658E679EE9AEEBAF6DAF6B0
:10533300DAF6DAF6FAF6DAF6DAE617CDB6FFFFFFB3
:10534300FFFFFFFFDFFFFFFFDFF7DFF7DFFFDFF722
:10535300DFF7DFF7BFF7BFF7BFEF9FE77FE77FE732
:105363007FDF7FD75FD73FCF3FCF1FBEDFB69FAE75
:105373005EAE5EBE9DC6DEB6BDA63DA65EA67FAE94
:105383009FB6DFBEFFC71F961D13590AD912F91224
:10539300D912D902796C9CB5DA6C188CFB953C9DBB
:1053A3005CADBEB5FEC67FD6FFD71FDF3FDF3FE74D
:1053B3005FEF9FEF9FE77FEF9FEFBFEFBFEFBFE78A
:1053C3007FE75FDF3FDF7FDF9FE79FD73FD71FDFAA
:1053D3005FE79FE7DFEFDFD77FA5FF84FC6C385BD8
:1053E300B453504AAC3A0939E818C4106210821019
:1053F300821082210429455248938BA3EBA3CBABA4
:10540300EBAC0BB42CBC4CA3CB72EA7B6D9C50ACC5
:10541300F2BD54CDB6D5F7DE38E679EE99EE99EEC6
:10542300B9EEBAF6DAF6DAF6FAE617C575FFFFFF54
:10543300FFFFFFFFFFFFFFFFDFF7DFF7DFFFFFF7F1
:10544300DFF7DFF7DFF7DFF7BFF7BFEFBFEF9FEF61
:105453009FEFBFE79FE77FDF7FDF5FD73FD71FCF99
:105463003FCF5FC71EB67FAE7FAE5EA63E95FDAE55
:105473007EB69EAE7DB6BEB6DF757D133A12F91BBE
:105483001A12F902796CBCADDA6C188CFB951B9D72
:105493005CA5BEB5DEC63FCEDFD6FFD6FFE73FE74E
:1054A3003FE75FEFBFEF9FEFBFEFBFEFBFEF9FE7B9
:1054B3005FDF3FDF3FDF5FDF7FDFBFD75FD73FCFF9
:1054C3001FD73FE7DFEFDFDF9FBE9FAE3F84FC6B5D
:1054D300F75BD553514A6C422A29871082108210F8
:1054E300821082188220E431865AAA836B9BCBA355
:1054F300CBABEBB42BB44CC46CB42C730962EA8B06
:10550300EEA4B1B533C595CDD6D617DE38E658E649
:1055130079EE99EEBAF6DAF6DADDD6BD34F7DFF7CF
:10552300FFFFFFFFFFFFDFF7DFF7DFFFDFFFDFFF38
:10553300DFF7DFFFDFF7DFF7DFF7DFF7DFF7BFEFD8
:105543009FEF9FEFBFEFBFF7DFEF9FE77FDF5FDFE8
:105553007FDF7FDF7FD77FCF5FC71FBEDFBEDFB6B3
:105563009FA61D8D7C9DFDA65E9E3E651C0B7A034A
:105573005B133A02B96CBCADDA6C1784BA953C9DE7
:105583005CADBEB5FEBE1FC65FCEDFDF1FDF1FDF14
:105593003FE75FEF9FEF9FEF9FEF9FEF9FEFBFE728
:1055A3007FDF1FDF3FDF3FDF5FDF7FD71FCF1FD7E8
:1055B3003FDF7FEFDFEFDFDF7FBE7FBEBFA5FF7C77
:1055C300BB64185BD64ACF428B3A0A18C3108210C9
:1055D300821082188218A221243A0939E7730B8BAF
:1055E3008D8B8B93CB9BEC9BEC9BCC7B8D636D5A10
:1055F300AA738C9450ACD2BD54CDB5D5D6D617DE94
:1056030038E678E699EE9AEEBACD95B4D3F7DFF79C
:10561300DFFFFFFFDFFFDFFFDFFFDFFFDFFFDFFF77
:10562300DFFFDFF7DFF7DFF7DFF7BFF7BFF7DFF7FF
:10563300DFF7BFF7DFEFBFF7DFEFBFF7BFEFBFEF77
:105643009FE77FE77FE79FE7BFDF9FD75FCF3FD727
:105653003FCF1FC6DFBEBFBEDFB69E95DD6D1C2CE0
:105663003B037A02B964BCADDA63F7849A8CFB9D81
:105673005CAD9EB5FEBE1FC65FD6DFD6DFDEFFE79D
:105683003FE75FE77FEF9FEFBFEFBFEF9FEF9FE73F
:105693009FDF5FDF3FDF3FD73FDF7FC6BFCEDFCF79
:1056A3001FE7BFE7DFEFDFD77FB65FBE9FBEBF9DBC
:1056B3009E747A6C1853324AAC42AD318710611034
:1056C30082108210A2188220A220E318E431C8635A
:1056D3006E5B2D52CB73B07BF08C7373AF7C118CEC
:1056E3001062A96B0A8BEEA4B1B513BD74CDB6D508
:1056F300F7DE38DE58E679E679C534A471F7BFF7EB
:10570300DFFFFFFFDFFFDFFFFFFFDFFFDFF7DFFF6E
:10571300FFFFFFF7DFF7DFF7DFF7BFF7DFF7DFF7AE
:10572300DFF7DFF7DFF7DFF7DFF7DFF7DFF7FFF7A6
:10573300DFEFBFF7DFEFBFEFBFEFBFE7BFE79FDFEE
:105743007FDF7FDF5FD73FCEFECF1FCF1FBE9EAE73
:105753007F759D3C1B857DADB963D7849A8CDA95A3
:105763003CADBEB5DEBE3FCE7FCEBFDEDFDEDFE7C4
:105773003FE77FE77FE77FEF9FEFBFF7BFEFBFEF26
:10578300BFE79FDF3FDF5FD73FDF7FCEFEC6BFCFE1
:105793003FE7DFE7DFEFDFCF1FAE1EB67FC6DFB623
:1057A3005F8D1C745963D54AEE4AEE3A4B18A31029
:1057B30082108210A218A220A320C318A221252997
:1057C300C73A075B918CF67C128CD683F18BEEB4CF
:1057D3008FA42E4A695AAA7BAD9C50ACF2BD54C526
:1057E30095CDD6D617DE38DE38ACD38C10EF9FFFBD
:1057F300FFFFFFF7DFFFDFF7DFFFFFFFDFF7DFFF6E
:10580300DFFFDFF7DFF7DFF7DFF7DFF7BFF7DFF7FD
:10581300FFF7DFF7DFF7DFF7DFF7DFF7FFF7FFF775
:10582300DFF7FFF7DFF7DFF7DFEFDFF7DFEFDFEFBD
:10583300BFEF9FEFBFE79FDF7FD73FDF5FD75FCF2D
:105843001FC6FFB6BFCF1FADB963D67C798CDA957F
:105853001BA55DB5FEBE3FC65FCE7FD69FDEDFE7ED
:105863003FE75FE77FE77FE77FEFBFF7DFEFDFEF3D
:10587300BFE77FE77FDF5FD75FD75FCF1FD73FDF0D
:105883009FE7DFE7BFEFDFC6BE9D7EAE1EBEBFBE96
:10589300DFA5DF7C9B6C5853104B0F430F29661019
:1058A300611082108218A220C3290428E331853AAB
:1058B3000739C8428A52CB52EC4AED93CCAC4FB471
:1058C3008E93ED42EE426A4A69734C8C0F9C91AD04
:1058D30013BD74C5B5D5F7C5D69C71736DE75EFF6F
:1058E300FFFFFFFFFFF7DFF7DFFFFFFFFFF7DFFF3D
:1058F300DFF7DFF7DFF7DFF7DFF7DFF7BFF7DFF715
:10590300DFF7DFF7DFF7DFF7DFF7FFF7DFF7DFF7C4
:10591300DFF7DFF7DFF7DFF7DFF7DFF7DFF7DFF7D4
:10592300DFF7DFEFDFEFBFE7BFE7BFE77FDF5FDF74
:105933007FD73FCF1FDF7FADDA5BB6747884BA942D
:10594300FB9D3CADBEBE1FC65FCE7FCE7FDEFFE7B5
:105953005FE75FE77FEF9FEF9FEFBFEFDFF7DFEFDC
:10596300DFE79FE79FDF5FDF7FD75FC6FFCEFFE7FE
:105973009FE79FE7BFE7BFBE9E9D7EB65FBE9FBE0C
:10598300BFB65F853D749A5B934AEF4B50428C18C8
:10599300C310621082108218C328E3290418A218C6
:1059A300A23A4A5BB25B916B8F83AD9C2DA44EAC44
:1059B3004D734C3ACE42EE430E42495AAA7B8D9424
:1059C3000FA4B2B533BD55B53483EE5ACBDEFDFF1C
:1059D300FFFFFFF7DFF7FFF7DFF7DFF7DFF7DFF7AC
:1059E300DFF7BFF7DFF7BFF7DFF7BFF7DFFFDFF75C
:1059F300DFF7DFF7DFF7DFF7DFEFDFF7DFF7DFFFF4
:105A0300DFFFDFFFDFF7DFF7DFFFDFF7DFF7DFF7CB
:105A1300DFF7DFF7DFF7FFEFDFEFBFEFBFEFBFE743
:105A23007FDF5FD75FE79FA5995BB574787C799437
:105A3300FBA55DAD9DB5DDBE3ECE7FD6BFD6DFDF18
:105A43001FE75FEF7FEF9FEFBFEFBFEFBFF7DFF71B
:105A5300DFEFBFE77FDF7FDF5FD73FCEFFD75FE7B4
:105A63009FE79FE79FE7BFB67E957EB65FBE7FBE8B
:105A73009FB69F9DFE84DB6C174B104B514B5131EE
:105A8300A8106210611062108218A318A31881185D
:105A9300A232086C1253706BF1940E9C0DA42D9CD2
:105AA3002E4B0D3A6C3AEE4B5042CD3A294A2862BE
:105AB300CA83AD9450A4B294716B4C5269D6BBFFA8
:105AC300FFFFDFF7DFEFBFF7DFF7DFF7BFF7DFF743
:105AD300BFF7DFF7DFF7DFF7DFF7DFF7DFF7DFFF2B
